{
  "abi": [
    {
      "inputs": [
        {
          "internalType": "address",
          "name": "initialOwner",
          "type": "address"
        }
      ],
      "stateMutability": "nonpayable",
      "type": "constructor"
    },
    {
      "inputs": [
        {
          "internalType": "address",
          "name": "owner",
          "type": "address"
        }
      ],
      "name": "OwnableInvalidOwner",
      "type": "error"
    },
    {
      "inputs": [
        {
          "internalType": "address",
          "name": "account",
          "type": "address"
        }
      ],
      "name": "OwnableUnauthorizedAccount",
      "type": "error"
    },
    {
      "anonymous": false,
      "inputs": [
        {
          "indexed": true,
          "internalType": "address",
          "name": "previousOwner",
          "type": "address"
        },
        {
          "indexed": true,
          "internalType": "address",
          "name": "newOwner",
          "type": "address"
        }
      ],
      "name": "OwnershipTransferred",
      "type": "event"
    },
    {
      "inputs": [
        {
          "internalType": "uint256",
          "name": "validatorId",
          "type": "uint256"
        },
        {
          "internalType": "bytes",
          "name": "pubkey",
          "type": "bytes"
        },
        {
          "internalType": "bytes",
          "name": "withdrawal_credentials",
          "type": "bytes"
        },
        {
          "internalType": "bytes",
          "name": "signature",
          "type": "bytes"
        },
        {
          "internalType": "bytes32",
          "name": "deposit_data_root",
          "type": "bytes32"
        }
      ],
      "name": "activateValidator",
      "outputs": [],
      "stateMutability": "nonpayable",
      "type": "function"
    },
    {
      "inputs": [
        {
          "internalType": "uint256",
          "name": "validatorId",
          "type": "uint256"
        }
      ],
      "name": "cancelContribution",
      "outputs": [],
      "stateMutability": "nonpayable",
      "type": "function"
    },
    {
      "inputs": [
        {
          "internalType": "uint256",
          "name": "validatorId",
          "type": "uint256"
        }
      ],
      "name": "contributeToValidator",
      "outputs": [],
      "stateMutability": "payable",
      "type": "function"
    },
    {
      "inputs": [
        {
          "internalType": "address",
          "name": "user",
          "type": "address"
        }
      ],
      "name": "getUserContributions",
      "outputs": [
        {
          "internalType": "uint256[]",
          "name": "",
          "type": "uint256[]"
        }
      ],
      "stateMutability": "view",
      "type": "function"
    },
    {
      "inputs": [
        {
          "internalType": "uint256",
          "name": "validatorId",
          "type": "uint256"
        }
      ],
      "name": "getValidatorInfo",
      "outputs": [
        {
          "components": [
            {
              "internalType": "address[]",
              "name": "feeAddresses",
              "type": "address[]"
            },
            {
              "internalType": "uint32[]",
              "name": "percentAllocations",
              "type": "uint32[]"
            },
            {
              "internalType": "address",
              "name": "signer",
              "type": "address"
            }
          ],
          "internalType": "struct SquadDeposits.ValidatorInfo",
          "name": "",
          "type": "tuple"
        }
      ],
      "stateMutability": "view",
      "type": "function"
    },
    {
      "inputs": [],
      "name": "owner",
      "outputs": [
        {
          "internalType": "address",
          "name": "",
          "type": "address"
        }
      ],
      "stateMutability": "view",
      "type": "function"
    },
    {
      "inputs": [
        {
          "internalType": "uint256",
          "name": "validatorId",
          "type": "uint256"
        },
        {
          "internalType": "address[]",
          "name": "feeAddresses",
          "type": "address[]"
        },
        {
          "internalType": "uint32[]",
          "name": "percentAllocations",
          "type": "uint32[]"
        },
        {
          "internalType": "address",
          "name": "signer",
          "type": "address"
        }
      ],
      "name": "registerValidator",
      "outputs": [],
      "stateMutability": "nonpayable",
      "type": "function"
    },
    {
      "inputs": [],
      "name": "renounceOwnership",
      "outputs": [],
      "stateMutability": "nonpayable",
      "type": "function"
    },
    {
      "inputs": [
        {
          "internalType": "uint256",
          "name": "",
          "type": "uint256"
        }
      ],
      "name": "s_isValidatorActive",
      "outputs": [
        {
          "internalType": "bool",
          "name": "",
          "type": "bool"
        }
      ],
      "stateMutability": "view",
      "type": "function"
    },
    {
      "inputs": [
        {
          "internalType": "address",
          "name": "",
          "type": "address"
        },
        {
          "internalType": "uint256",
          "name": "",
          "type": "uint256"
        }
      ],
      "name": "s_userContributedTo",
      "outputs": [
        {
          "internalType": "uint256",
          "name": "",
          "type": "uint256"
        }
      ],
      "stateMutability": "view",
      "type": "function"
    },
    {
      "inputs": [
        {
          "internalType": "address",
          "name": "",
          "type": "address"
        },
        {
          "internalType": "uint256",
          "name": "",
          "type": "uint256"
        }
      ],
      "name": "s_validatorContributions",
      "outputs": [
        {
          "internalType": "uint256",
          "name": "",
          "type": "uint256"
        }
      ],
      "stateMutability": "view",
      "type": "function"
    },
    {
      "inputs": [
        {
          "internalType": "uint256",
          "name": "",
          "type": "uint256"
        },
        {
          "internalType": "uint256",
          "name": "",
          "type": "uint256"
        }
      ],
      "name": "s_validatorContributors",
      "outputs": [
        {
          "internalType": "address",
          "name": "",
          "type": "address"
        }
      ],
      "stateMutability": "view",
      "type": "function"
    },
    {
      "inputs": [
        {
          "internalType": "uint256",
          "name": "",
          "type": "uint256"
        }
      ],
      "name": "s_validatorFeeSplitter",
      "outputs": [
        {
          "internalType": "address",
          "name": "",
          "type": "address"
        }
      ],
      "stateMutability": "view",
      "type": "function"
    },
    {
      "inputs": [
        {
          "internalType": "uint256",
          "name": "",
          "type": "uint256"
        }
      ],
      "name": "s_validatorOwr",
      "outputs": [
        {
          "internalType": "address",
          "name": "",
          "type": "address"
        }
      ],
      "stateMutability": "view",
      "type": "function"
    },
    {
      "inputs": [
        {
          "internalType": "uint256",
          "name": "",
          "type": "uint256"
        }
      ],
      "name": "s_validatorTotalContributions",
      "outputs": [
        {
          "internalType": "uint256",
          "name": "",
          "type": "uint256"
        }
      ],
      "stateMutability": "view",
      "type": "function"
    },
    {
      "inputs": [
        {
          "internalType": "address",
          "name": "newOwner",
          "type": "address"
        }
      ],
      "name": "transferOwnership",
      "outputs": [],
      "stateMutability": "nonpayable",
      "type": "function"
    }
  ],
  "bytecode": {
    "object": "0x608060405234801561001057600080fd5b50604051620019a4380380620019a4833981016040819052610031916100c0565b806001600160a01b03811661006057604051631e4fbdf760e01b81526000600482015260240160405180910390fd5b61006981610070565b50506100f0565b600080546001600160a01b038381166001600160a01b0319831681178455604051919092169283917f8be0079c531659141344cd1fd0a4f28419497f9722a3daafe3b4186f6b6457e09190a35050565b6000602082840312156100d257600080fd5b81516001600160a01b03811681146100e957600080fd5b9392505050565b6118a480620001006000396000f3fe6080604052600436106100f35760003560e01c80637e24af481161008a578063c036053711610059578063c0360537146102f1578063df5bc75c14610329578063e36465a314610349578063f2fde38b1461037657600080fd5b80637e24af481461023057806389c574da146102705780638da5cb5b146102a6578063b7797537146102c457600080fd5b80633d2a840b116100c65780633d2a840b146101a55780633e389504146101c55780636ec299b1146101fb578063715018a61461021b57600080fd5b80630b7ccd54146100f85780630dfa4164146101355780632e8d5bb81461014a578063368e571b14610185575b600080fd5b34801561010457600080fd5b50610118610113366004611392565b610396565b6040516001600160a01b0390911681526020015b60405180910390f35b6101486101433660046113b4565b6103ce565b005b34801561015657600080fd5b506101776101653660046113b4565b60046020526000908152604090205481565b60405190815260200161012c565b34801561019157600080fd5b506101486101a03660046113b4565b610538565b3480156101b157600080fd5b506101486101c0366004611416565b610686565b3480156101d157600080fd5b506101186101e03660046113b4565b6008602052600090815260409020546001600160a01b031681565b34801561020757600080fd5b506101776102163660046114d6565b6109e9565b34801561022757600080fd5b50610148610a1a565b34801561023c57600080fd5b5061026061024b3660046113b4565b60026020526000908152604090205460ff1681565b604051901515815260200161012c565b34801561027c57600080fd5b5061011861028b3660046113b4565b6007602052600090815260409020546001600160a01b031681565b3480156102b257600080fd5b506000546001600160a01b0316610118565b3480156102d057600080fd5b506102e46102df3660046113b4565b610a2e565b60405161012c9190611502565b3480156102fd57600080fd5b5061017761030c3660046114d6565b600360209081526000928352604080842090915290825290205481565b34801561033557600080fd5b50610148610344366004611600565b610bb7565b34801561035557600080fd5b5061036961036436600461168c565b610e34565b60405161012c91906116b0565b34801561038257600080fd5b5061014861039136600461168c565b610ea0565b600660205281600052604060002081815481106103b257600080fd5b6000918252602090912001546001600160a01b03169150829050565b600081815260046020908152604080832054600683529083208054600181018255908452919092200180546001600160a01b031916331790556801bc16d674ec80000061041b348361170a565b11156104e2576000610436826801bc16d674ec80000061171d565b905060006801bc16d674ec80000061044e348561170a565b610458919061171d565b604051909150339082156108fc029083906000818181858888f19350505050158015610488573d6000803e3d6000fd5b50336000908152600360209081526040808320878452909152812080548492906104b390849061170a565b909155505033600090815260056020908152604082208054600181018255908352912001849055506105349050565b3360009081526003602090815260408083208584529091528120805434929061050c90849061170a565b9091555050336000908152600560209081526040822080546001810182559083529120018290555b5050565b336000818152600360209081526040808320858452825280832080549084905593835260059091528120905b81548110156105c3578382828154811061058057610580611730565b9060005260206000200154036105b15760008282815481106105a4576105a4611730565b6000918252602090912001555b806105bb81611746565b915050610564565b506000838152600660205260408120905b815481101561065157336001600160a01b03168282815481106105f9576105f9611730565b6000918252602090912001546001600160a01b03160361063f5781818154811061062557610625611730565b600091825260209091200180546001600160a01b03191690555b8061064981611746565b9150506105d4565b50604051339084156108fc029085906000818181858888f1935050505015801561067f573d6000803e3d6000fd5b5050505050565b60008881526002602052604090205460ff16156106ea5760405162461bcd60e51b815260206004820152601860248201527f76616c696461746f7220616c726561647920616374697665000000000000000060448201526064015b60405180910390fd5b6000888152600460205260409020546801bc16d674ec8000008110156107495760405162461bcd60e51b81526020600482015260146024820152731a5b9d985b1a59081cdd185ad948185b5bdd5b9d60621b60448201526064016106e1565b600089815260016020908152604080832081518154608094810282018501909352606081018381529093919284928491908401828280156107b357602002820191906000526020600020905b81546001600160a01b03168152600190910190602001808311610795575b505050505081526020016001820180548060200260200160405190810160405280929190818152602001828054801561083757602002820191906000526020600020906000905b82829054906101000a900463ffffffff1663ffffffff16815260200190600401906020826003010492830192600103820291508084116107fa5790505b5050509183525050600291909101546001600160a01b0390811660209092019190915260408201519192501633146108a25760405162461bcd60e51b815260206004820152600e60248201526d34b73b30b634b21039b4b3b732b960911b60448201526064016106e1565b6000806108af8c84610ede565b915091506000600a60009054906101000a90046001600160a01b03166001600160a01b031663e958b1278e85856040518463ffffffff1660e01b81526004016108fa9392919061175f565b6020604051808303816000875af1158015610919573d6000803e3d6000fd5b505050506040513d601f19601f8201168201806040525081019061093d91906117f4565b60008e815260086020908152604080832080546001600160a01b0319166001600160a01b038681169182179092556007909352928190205460095491516350b2b4a960e11b8152908416600482018190526024820193909352939450909291169063a165695290604401600060405180830381600087803b1580156109c157600080fd5b505af11580156109d5573d6000803e3d6000fd5b505050505050505050505050505050505050565b60056020528160005260406000208181548110610a0557600080fd5b90600052602060002001600091509150505481565b610a22611190565b610a2c60006111bd565b565b60408051606080820183528082526020820152600091810191909152600082815260016020526040902054610aa55760405162461bcd60e51b815260206004820152601860248201527f56616c696461746f72206e6f742072656769737465726564000000000000000060448201526064016106e1565b60008281526001602090815260409182902082518154608093810282018401909452606081018481529093919284928491840182828015610b0f57602002820191906000526020600020905b81546001600160a01b03168152600190910190602001808311610af1575b5050505050815260200160018201805480602002602001604051908101604052809291908181526020018280548015610b9357602002820191906000526020600020906000905b82829054906101000a900463ffffffff1663ffffffff1681526020019060040190602082600301049283019260010382029150808411610b565790505b5050509183525050600291909101546001600160a01b031660209091015292915050565b6001841015610c135760405162461bcd60e51b815260206004820152602260248201527f6d7573742068617665206174206c65617374206f6e6520666565206164647265604482015261737360f01b60648201526084016106e1565b838214610c935760405162461bcd60e51b815260206004820152604260248201527f6d7573742068617665207468652073616d65206e756d626572206f662066656560448201527f2061646472657373657320616e642070657263656e7420616c6c6f636174696f6064820152616e7360f01b608482015260a4016106e1565b600954604051632083c55960e11b8152306004820181905260248201526801bc16d674ec80000060448201526000916001600160a01b0316906341078ab2906064016020604051808303816000875af1158015610cf4573d6000803e3d6000fd5b505050506040513d601f19601f82011682018060405250810190610d1891906117f4565b60008881526007602090815260409182902080546001600160a01b0319166001600160a01b03851617905581519088028082016080908101909352606082018981529394509092839290918a918a918291860190849080828437600092019190915250505090825250604080516020878102828101820190935287825292830192909188918891829185019084908082843760009201829052509385525050506001600160a01b0385166020928301528981526001825260409020825180519192610de892849290910190611272565b506020828101518051610e0192600185019201906112d7565b5060409190910151600290910180546001600160a01b0319166001600160a01b0390921691909117905550505050505050565b6001600160a01b038116600090815260056020908152604091829020805483518184028101840190945280845260609392830182828015610e9457602002820191906000526020600020905b815481526020019060010190808311610e80575b50505050509050919050565b610ea8611190565b6001600160a01b038116610ed257604051631e4fbdf760e01b8152600060048201526024016106e1565b610edb816111bd565b50565b6060806000805b846020015151811015610f3657600085602001518281518110610f0a57610f0a611730565b602002602001015190508083610f209190611811565b9250508080610f2e90611746565b915050610ee5565b50600063ffffffff8216610f4e620f42406064611835565b610f58919061171d565b90506000805b600088815260066020526040902054811015611073576000888152600660205260408120805483908110610f9457610f94611730565b60009182526020808320909101546001600160a01b03168083526003825260408084208d855290925291205490915081158015610fcf575080155b15610fdb575050611061565b60006801bc16d674ec800000610ff18388611835565b610ffb919061184c565b90508289868151811061101057611010611730565b60200260200101906001600160a01b031690816001600160a01b0316815250508088868151811061104357611043611730565b602002602001019063ffffffff16908163ffffffff16815250505050505b8061106b81611746565b915050610f5e565b5060005b8651518110156111855760008760000151828151811061109957611099611730565b602002602001015190506000886020015183815181106110bb576110bb611730565b6020026020010151905060006110d1838a61120d565b9050801961113e57828986815181106110ec576110ec611730565b60200260200101906001600160a01b031690816001600160a01b0316815250508188868151811061111f5761111f611730565b602002602001019063ffffffff16908163ffffffff168152505061116f565b8188828151811061115157611151611730565b602002602001018181516111659190611811565b63ffffffff169052505b505050808061117d90611746565b915050611077565b505050509250929050565b6000546001600160a01b03163314610a2c5760405163118cdaa760e01b81523360048201526024016106e1565b600080546001600160a01b038381166001600160a01b0319831681178455604051919092169283917f8be0079c531659141344cd1fd0a4f28419497f9722a3daafe3b4186f6b6457e09190a35050565b6000805b825181101561126557836001600160a01b031683828151811061123657611236611730565b60200260200101516001600160a01b03160361125357905061126c565b8061125d81611746565b915050611211565b5060001990505b92915050565b8280548282559060005260206000209081019282156112c7579160200282015b828111156112c757825182546001600160a01b0319166001600160a01b03909116178255602090920191600190910190611292565b506112d392915061137d565b5090565b828054828255906000526020600020906007016008900481019282156112c75791602002820160005b8382111561134457835183826101000a81548163ffffffff021916908363ffffffff1602179055509260200192600401602081600301049283019260010302611300565b80156113745782816101000a81549063ffffffff0219169055600401602081600301049283019260010302611344565b50506112d39291505b5b808211156112d3576000815560010161137e565b600080604083850312156113a557600080fd5b50508035926020909101359150565b6000602082840312156113c657600080fd5b5035919050565b60008083601f8401126113df57600080fd5b50813567ffffffffffffffff8111156113f757600080fd5b60208301915083602082850101111561140f57600080fd5b9250929050565b60008060008060008060008060a0898b03121561143257600080fd5b88359750602089013567ffffffffffffffff8082111561145157600080fd5b61145d8c838d016113cd565b909950975060408b013591508082111561147657600080fd5b6114828c838d016113cd565b909750955060608b013591508082111561149b57600080fd5b506114a88b828c016113cd565b999c989b50969995989497949560800135949350505050565b6001600160a01b0381168114610edb57600080fd5b600080604083850312156114e957600080fd5b82356114f4816114c1565b946020939093013593505050565b6020808252825160608383015280516080840181905260009291820190839060a08601905b808310156115505783516001600160a01b03168252928401926001929092019190840190611527565b5086840151868203601f190160408801528051808352908501935090840191506000905b8082101561159a57835163ffffffff168352928401929184019160019190910190611574565b505060408601516001600160a01b0381166060870152925095945050505050565b60008083601f8401126115cd57600080fd5b50813567ffffffffffffffff8111156115e557600080fd5b6020830191508360208260051b850101111561140f57600080fd5b6000806000806000806080878903121561161957600080fd5b86359550602087013567ffffffffffffffff8082111561163857600080fd5b6116448a838b016115bb565b9097509550604089013591508082111561165d57600080fd5b5061166a89828a016115bb565b909450925050606087013561167e816114c1565b809150509295509295509295565b60006020828403121561169e57600080fd5b81356116a9816114c1565b9392505050565b6020808252825182820181905260009190848201906040850190845b818110156116e8578351835292840192918401916001016116cc565b50909695505050505050565b634e487b7160e01b600052601160045260246000fd5b8082018082111561126c5761126c6116f4565b8181038181111561126c5761126c6116f4565b634e487b7160e01b600052603260045260246000fd5b600060018201611758576117586116f4565b5060010190565b6000606082018583526020606081850152818651808452608086019150828801935060005b818110156117a95784516001600160a01b031683529383019391830191600101611784565b50508481036040860152855180825290820192508186019060005b818110156117e657825163ffffffff16855293830193918301916001016117c4565b509298975050505050505050565b60006020828403121561180657600080fd5b81516116a9816114c1565b63ffffffff81811683821601908082111561182e5761182e6116f4565b5092915050565b808202811582820484141761126c5761126c6116f4565b60008261186957634e487b7160e01b600052601260045260246000fd5b50049056fea2646970667358221220ffde919b83e35fdad8ff2a250a7efe994affa7993685ce57d1e2835aace088b064736f6c63430008150033",
    "linkReferences": {}
  },
  "methodIdentifiers": {
    "activateValidator(uint256,bytes,bytes,bytes,bytes32)": "3d2a840b",
    "cancelContribution(uint256)": "368e571b",
    "contributeToValidator(uint256)": "0dfa4164",
    "getUserContributions(address)": "e36465a3",
    "getValidatorInfo(uint256)": "b7797537",
    "owner()": "8da5cb5b",
    "registerValidator(uint256,address[],uint32[],address)": "df5bc75c",
    "renounceOwnership()": "715018a6",
    "s_isValidatorActive(uint256)": "7e24af48",
    "s_userContributedTo(address,uint256)": "6ec299b1",
    "s_validatorContributions(address,uint256)": "c0360537",
    "s_validatorContributors(uint256,uint256)": "0b7ccd54",
    "s_validatorFeeSplitter(uint256)": "3e389504",
    "s_validatorOwr(uint256)": "89c574da",
    "s_validatorTotalContributions(uint256)": "2e8d5bb8",
    "transferOwnership(address)": "f2fde38b"
  },
  "id": 30
}