{
  "abi": [
    {
      "inputs": [
        {
          "internalType": "address",
          "name": "initialOwner",
          "type": "address"
        }
      ],
      "stateMutability": "nonpayable",
      "type": "constructor"
    },
    {
      "inputs": [
        {
          "internalType": "address",
          "name": "owner",
          "type": "address"
        }
      ],
      "name": "OwnableInvalidOwner",
      "type": "error"
    },
    {
      "inputs": [
        {
          "internalType": "address",
          "name": "account",
          "type": "address"
        }
      ],
      "name": "OwnableUnauthorizedAccount",
      "type": "error"
    },
    {
      "anonymous": false,
      "inputs": [
        {
          "indexed": true,
          "internalType": "address",
          "name": "previousOwner",
          "type": "address"
        },
        {
          "indexed": true,
          "internalType": "address",
          "name": "newOwner",
          "type": "address"
        }
      ],
      "name": "OwnershipTransferred",
      "type": "event"
    },
    {
      "inputs": [
        {
          "internalType": "uint256",
          "name": "validatorId",
          "type": "uint256"
        },
        {
          "internalType": "bytes",
          "name": "pubkey",
          "type": "bytes"
        },
        {
          "internalType": "bytes",
          "name": "withdrawal_credentials",
          "type": "bytes"
        },
        {
          "internalType": "bytes",
          "name": "signature",
          "type": "bytes"
        },
        {
          "internalType": "bytes32",
          "name": "deposit_data_root",
          "type": "bytes32"
        }
      ],
      "name": "activateValidator",
      "outputs": [],
      "stateMutability": "nonpayable",
      "type": "function"
    },
    {
      "inputs": [
        {
          "internalType": "uint256",
          "name": "validatorId",
          "type": "uint256"
        }
      ],
      "name": "cancelContribution",
      "outputs": [],
      "stateMutability": "nonpayable",
      "type": "function"
    },
    {
      "inputs": [
        {
          "internalType": "uint256",
          "name": "validatorId",
          "type": "uint256"
        }
      ],
      "name": "contributeToValidator",
      "outputs": [],
      "stateMutability": "payable",
      "type": "function"
    },
    {
      "inputs": [
        {
          "internalType": "address",
          "name": "user",
          "type": "address"
        }
      ],
      "name": "getUserContributions",
      "outputs": [
        {
          "internalType": "uint256[]",
          "name": "",
          "type": "uint256[]"
        }
      ],
      "stateMutability": "view",
      "type": "function"
    },
    {
      "inputs": [
        {
          "internalType": "uint256",
          "name": "validatorId",
          "type": "uint256"
        }
      ],
      "name": "getValidatorInfo",
      "outputs": [
        {
          "components": [
            {
              "internalType": "address[]",
              "name": "feeAddresses",
              "type": "address[]"
            },
            {
              "internalType": "uint32[]",
              "name": "percentAllocations",
              "type": "uint32[]"
            },
            {
              "internalType": "address",
              "name": "signer",
              "type": "address"
            }
          ],
          "internalType": "struct SquadFiDeposits.ValidatorInfo",
          "name": "",
          "type": "tuple"
        }
      ],
      "stateMutability": "view",
      "type": "function"
    },
    {
      "inputs": [],
      "name": "owner",
      "outputs": [
        {
          "internalType": "address",
          "name": "",
          "type": "address"
        }
      ],
      "stateMutability": "view",
      "type": "function"
    },
    {
      "inputs": [
        {
          "internalType": "uint256",
          "name": "validatorId",
          "type": "uint256"
        },
        {
          "internalType": "address[]",
          "name": "feeAddresses",
          "type": "address[]"
        },
        {
          "internalType": "uint32[]",
          "name": "percentAllocations",
          "type": "uint32[]"
        },
        {
          "internalType": "address",
          "name": "signer",
          "type": "address"
        }
      ],
      "name": "registerValidator",
      "outputs": [],
      "stateMutability": "nonpayable",
      "type": "function"
    },
    {
      "inputs": [],
      "name": "renounceOwnership",
      "outputs": [],
      "stateMutability": "nonpayable",
      "type": "function"
    },
    {
      "inputs": [
        {
          "internalType": "uint256",
          "name": "",
          "type": "uint256"
        }
      ],
      "name": "s_isValidatorActive",
      "outputs": [
        {
          "internalType": "bool",
          "name": "",
          "type": "bool"
        }
      ],
      "stateMutability": "view",
      "type": "function"
    },
    {
      "inputs": [
        {
          "internalType": "address",
          "name": "",
          "type": "address"
        },
        {
          "internalType": "uint256",
          "name": "",
          "type": "uint256"
        }
      ],
      "name": "s_userContributedTo",
      "outputs": [
        {
          "internalType": "uint256",
          "name": "",
          "type": "uint256"
        }
      ],
      "stateMutability": "view",
      "type": "function"
    },
    {
      "inputs": [
        {
          "internalType": "address",
          "name": "",
          "type": "address"
        },
        {
          "internalType": "uint256",
          "name": "",
          "type": "uint256"
        }
      ],
      "name": "s_validatorContributions",
      "outputs": [
        {
          "internalType": "uint256",
          "name": "",
          "type": "uint256"
        }
      ],
      "stateMutability": "view",
      "type": "function"
    },
    {
      "inputs": [
        {
          "internalType": "uint256",
          "name": "",
          "type": "uint256"
        },
        {
          "internalType": "uint256",
          "name": "",
          "type": "uint256"
        }
      ],
      "name": "s_validatorContributors",
      "outputs": [
        {
          "internalType": "address",
          "name": "",
          "type": "address"
        }
      ],
      "stateMutability": "view",
      "type": "function"
    },
    {
      "inputs": [
        {
          "internalType": "uint256",
          "name": "",
          "type": "uint256"
        }
      ],
      "name": "s_validatorFeeSplitter",
      "outputs": [
        {
          "internalType": "address",
          "name": "",
          "type": "address"
        }
      ],
      "stateMutability": "view",
      "type": "function"
    },
    {
      "inputs": [
        {
          "internalType": "uint256",
          "name": "",
          "type": "uint256"
        }
      ],
      "name": "s_validatorOwr",
      "outputs": [
        {
          "internalType": "address",
          "name": "",
          "type": "address"
        }
      ],
      "stateMutability": "view",
      "type": "function"
    },
    {
      "inputs": [
        {
          "internalType": "uint256",
          "name": "",
          "type": "uint256"
        }
      ],
      "name": "s_validatorTotalContributions",
      "outputs": [
        {
          "internalType": "uint256",
          "name": "",
          "type": "uint256"
        }
      ],
      "stateMutability": "view",
      "type": "function"
    },
    {
      "inputs": [
        {
          "internalType": "address",
          "name": "_nftManager",
          "type": "address"
        }
      ],
      "name": "setNftManager",
      "outputs": [],
      "stateMutability": "nonpayable",
      "type": "function"
    },
    {
      "inputs": [
        {
          "internalType": "address",
          "name": "_owrFactory",
          "type": "address"
        }
      ],
      "name": "setOwrFactory",
      "outputs": [],
      "stateMutability": "nonpayable",
      "type": "function"
    },
    {
      "inputs": [
        {
          "internalType": "address",
          "name": "newOwner",
          "type": "address"
        }
      ],
      "name": "transferOwnership",
      "outputs": [],
      "stateMutability": "nonpayable",
      "type": "function"
    }
  ],
  "bytecode": {
    "object": "0x60806040523480156200001157600080fd5b5060405162001d9e38038062001d9e8339810160408190526200003491620000c7565b806001600160a01b0381166200006457604051631e4fbdf760e01b81526000600482015260240160405180910390fd5b6200006f8162000077565b5050620000f9565b600080546001600160a01b038381166001600160a01b0319831681178455604051919092169283917f8be0079c531659141344cd1fd0a4f28419497f9722a3daafe3b4186f6b6457e09190a35050565b600060208284031215620000da57600080fd5b81516001600160a01b0381168114620000f257600080fd5b9392505050565b611c9580620001096000396000f3fe6080604052600436106101095760003560e01c80637e24af4811610095578063b779753711610064578063b77975371461031a578063c036053714610347578063df5bc75c1461037f578063e36465a31461039f578063f2fde38b146103cc57600080fd5b80637e24af481461026657806389c574da146102a65780638da5cb5b146102dc578063a3b0f235146102fa57600080fd5b80633d2a840b116100dc5780633d2a840b146101bb5780633e389504146101db5780636ec299b114610211578063715018a614610231578063766795cf1461024657600080fd5b80630b7ccd541461010e5780630dfa41641461014b5780632e8d5bb814610160578063368e571b1461019b575b600080fd5b34801561011a57600080fd5b5061012e61012936600461171f565b6103ec565b6040516001600160a01b0390911681526020015b60405180910390f35b61015e610159366004611741565b610424565b005b34801561016c57600080fd5b5061018d61017b366004611741565b60046020526000908152604090205481565b604051908152602001610142565b3480156101a757600080fd5b5061015e6101b6366004611741565b610645565b3480156101c757600080fd5b5061015e6101d636600461179c565b610854565b3480156101e757600080fd5b5061012e6101f6366004611741565b6008602052600090815260409020546001600160a01b031681565b34801561021d57600080fd5b5061018d61022c36600461185c565b610bb7565b34801561023d57600080fd5b5061015e610be8565b34801561025257600080fd5b5061015e610261366004611888565b610bfc565b34801561027257600080fd5b50610296610281366004611741565b60026020526000908152604090205460ff1681565b6040519015158152602001610142565b3480156102b257600080fd5b5061012e6102c1366004611741565b6007602052600090815260409020546001600160a01b031681565b3480156102e857600080fd5b506000546001600160a01b031661012e565b34801561030657600080fd5b5061015e610315366004611888565b610c26565b34801561032657600080fd5b5061033a610335366004611741565b610c50565b60405161014291906118ac565b34801561035357600080fd5b5061018d61036236600461185c565b600360209081526000928352604080842090915290825290205481565b34801561038b57600080fd5b5061015e61039a3660046119aa565b610dd9565b3480156103ab57600080fd5b506103bf6103ba366004611888565b611056565b6040516101429190611a36565b3480156103d857600080fd5b5061015e6103e7366004611888565b6110c2565b6006602052816000526040600020818154811061040857600080fd5b6000918252602090912001546001600160a01b03169150829050565b60006004600083815260200190815260200160002054905061047460405180604001604052806016815260200175746f74616c436f6e747269627574696f6e733a20257360501b81525082611100565b60008281526006602090815260408220805460018101825590835291200180546001600160a01b031916331790556801bc16d674ec8000006104b63483611a90565b111561057d5760006104d1826801bc16d674ec800000611aa3565b905060006801bc16d674ec8000006104e93485611a90565b6104f39190611aa3565b604051909150339082156108fc029083906000818181858888f19350505050158015610523573d6000803e3d6000fd5b503360009081526003602090815260408083208784529091528120805484929061054e908490611a90565b909155505033600090815260056020908152604082208054600181018255908352912001849055506105cf9050565b336000908152600360209081526040808320858452909152812080543492906105a7908490611a90565b9091555050336000908152600560209081526040822080546001810182559083529120018290555b600082815260046020526040812080543492906105ed908490611a90565b9250508190555061064160405180604001604052806018815260200177746f74616c436f6e747269627574696f6e7332203a20257360401b8152506004600085815260200190815260200160002054611100565b5050565b6106976040518060400160405280601781526020017f746f74616c436f6e747269627574696f6e73203a2025730000000000000000008152506004600084815260200190815260200160002054611100565b3360009081526003602090815260408083208484528252808320805490849055600490925282208054919283926106cf908490611aa3565b9091555050336000908152600560205260408120905b8154811015610744578382828154811061070157610701611ab6565b90600052602060002001540361073257600082828154811061072557610725611ab6565b6000918252602090912001555b8061073c81611acc565b9150506106e5565b506000838152600660205260408120905b81548110156107d257336001600160a01b031682828154811061077a5761077a611ab6565b6000918252602090912001546001600160a01b0316036107c0578181815481106107a6576107a6611ab6565b600091825260209091200180546001600160a01b03191690555b806107ca81611acc565b915050610755565b50604051339084156108fc029085906000818181858888f19350505050158015610800573d6000803e3d6000fd5b5061084e60405180604001604052806018815260200177746f74616c436f6e747269627574696f6e7332203a20257360401b8152506004600087815260200190815260200160002054611100565b50505050565b60008881526002602052604090205460ff16156108b85760405162461bcd60e51b815260206004820152601860248201527f76616c696461746f7220616c726561647920616374697665000000000000000060448201526064015b60405180910390fd5b6000888152600460205260409020546801bc16d674ec8000008110156109175760405162461bcd60e51b81526020600482015260146024820152731a5b9d985b1a59081cdd185ad948185b5bdd5b9d60621b60448201526064016108af565b6000898152600160209081526040808320815181546080948102820185019093526060810183815290939192849284919084018282801561098157602002820191906000526020600020905b81546001600160a01b03168152600190910190602001808311610963575b5050505050815260200160018201805480602002602001604051908101604052809291908181526020018280548015610a0557602002820191906000526020600020906000905b82829054906101000a900463ffffffff1663ffffffff16815260200190600401906020826003010492830192600103820291508084116109c85790505b5050509183525050600291909101546001600160a01b039081166020909201919091526040820151919250163314610a705760405162461bcd60e51b815260206004820152600e60248201526d34b73b30b634b21039b4b3b732b960911b60448201526064016108af565b600080610a7d8c84611145565b915091506000600a60009054906101000a90046001600160a01b03166001600160a01b031663e958b1278e85856040518463ffffffff1660e01b8152600401610ac893929190611ae5565b6020604051808303816000875af1158015610ae7573d6000803e3d6000fd5b505050506040513d601f19601f82011682018060405250810190610b0b9190611b7a565b60008e815260086020908152604080832080546001600160a01b0319166001600160a01b038681169182179092556007909352928190205460095491516350b2b4a960e11b8152908416600482018190526024820193909352939450909291169063a165695290604401600060405180830381600087803b158015610b8f57600080fd5b505af1158015610ba3573d6000803e3d6000fd5b505050505050505050505050505050505050565b60056020528160005260406000208181548110610bd357600080fd5b90600052602060002001600091509150505481565b610bf06114fc565b610bfa6000611529565b565b610c046114fc565b600a80546001600160a01b0319166001600160a01b0392909216919091179055565b610c2e6114fc565b600980546001600160a01b0319166001600160a01b0392909216919091179055565b60408051606080820183528082526020820152600091810191909152600082815260016020526040902054610cc75760405162461bcd60e51b815260206004820152601860248201527f56616c696461746f72206e6f742072656769737465726564000000000000000060448201526064016108af565b60008281526001602090815260409182902082518154608093810282018401909452606081018481529093919284928491840182828015610d3157602002820191906000526020600020905b81546001600160a01b03168152600190910190602001808311610d13575b5050505050815260200160018201805480602002602001604051908101604052809291908181526020018280548015610db557602002820191906000526020600020906000905b82829054906101000a900463ffffffff1663ffffffff1681526020019060040190602082600301049283019260010382029150808411610d785790505b5050509183525050600291909101546001600160a01b031660209091015292915050565b6001841015610e355760405162461bcd60e51b815260206004820152602260248201527f6d7573742068617665206174206c65617374206f6e6520666565206164647265604482015261737360f01b60648201526084016108af565b838214610eb55760405162461bcd60e51b815260206004820152604260248201527f6d7573742068617665207468652073616d65206e756d626572206f662066656560448201527f2061646472657373657320616e642070657263656e7420616c6c6f636174696f6064820152616e7360f01b608482015260a4016108af565b600954604051632083c55960e11b8152306004820181905260248201526801bc16d674ec80000060448201526000916001600160a01b0316906341078ab2906064016020604051808303816000875af1158015610f16573d6000803e3d6000fd5b505050506040513d601f19601f82011682018060405250810190610f3a9190611b7a565b60008881526007602090815260409182902080546001600160a01b0319166001600160a01b03851617905581519088028082016080908101909352606082018981529394509092839290918a918a918291860190849080828437600092019190915250505090825250604080516020878102828101820190935287825292830192909188918891829185019084908082843760009201829052509385525050506001600160a01b038516602092830152898152600182526040902082518051919261100a928492909101906115ff565b5060208281015180516110239260018501920190611664565b5060409190910151600290910180546001600160a01b0319166001600160a01b0390921691909117905550505050505050565b6001600160a01b0381166000908152600560209081526040918290208054835181840281018401909452808452606093928301828280156110b657602002820191906000526020600020905b8154815260200190600101908083116110a2575b50505050509050919050565b6110ca6114fc565b6001600160a01b0381166110f457604051631e4fbdf760e01b8152600060048201526024016108af565b6110fd81611529565b50565b6106418282604051602401611116929190611b97565b60408051601f198184030181529190526020810180516001600160e01b03166309710a9d60e41b179052611579565b6060806000805b84602001515181101561119d5760008560200151828151811061117157611171611ab6565b6020026020010151905080836111879190611bec565b925050808061119590611acc565b91505061114c565b50600063ffffffff82166111b5620f42406064611c10565b6111bf9190611aa3565b855151600088815260066020526040812054929350916111df9190611a90565b905060008167ffffffffffffffff8111156111fc576111fc611c27565b604051908082528060200260200182016040528015611225578160200160208202803683370190505b50905060008267ffffffffffffffff81111561124357611243611c27565b60405190808252806020026020018201604052801561126c578160200160208202803683370190505b5090506000805b60008b8152600660205260409020548110156113d05760008b81526006602052604081208054839081106112a9576112a9611ab6565b9060005260206000200160009054906101000a90046001600160a01b03169050600060036000836001600160a01b03166001600160a01b0316815260200190815260200160002060008e815260200190815260200160002054905060006001600160a01b0316826001600160a01b0316148015611324575080155b156113305750506113be565b60006801bc16d674ec800000611346838b611c10565b6113509190611c3d565b90508287868151811061136557611365611ab6565b60200260200101906001600160a01b031690816001600160a01b0316815250508086868151811061139857611398611ab6565b63ffffffff90921660209283029190910190910152846113b781611acc565b9550505050505b806113c881611acc565b915050611273565b5060005b8951518110156114ea5760008a6000015182815181106113f6576113f6611ab6565b6020026020010151905060008b60200151838151811061141857611418611ab6565b60200260200101519050600061142e838861159a565b905080196114a3578287868151811061144957611449611ab6565b60200260200101906001600160a01b031690816001600160a01b0316815250508186868151811061147c5761147c611ab6565b63ffffffff909216602092830291909101909101528461149b81611acc565b9550506114d4565b818682815181106114b6576114b6611ab6565b602002602001018181516114ca9190611bec565b63ffffffff169052505b50505080806114e290611acc565b9150506113d4565b509196509450505050505b9250929050565b6000546001600160a01b03163314610bfa5760405163118cdaa760e01b81523360048201526024016108af565b600080546001600160a01b038381166001600160a01b0319831681178455604051919092169283917f8be0079c531659141344cd1fd0a4f28419497f9722a3daafe3b4186f6b6457e09190a35050565b80516a636f6e736f6c652e6c6f67602083016000808483855afa5050505050565b6000805b82518110156115f257836001600160a01b03168382815181106115c3576115c3611ab6565b60200260200101516001600160a01b0316036115e05790506115f9565b806115ea81611acc565b91505061159e565b5060001990505b92915050565b828054828255906000526020600020908101928215611654579160200282015b8281111561165457825182546001600160a01b0319166001600160a01b0390911617825560209092019160019091019061161f565b5061166092915061170a565b5090565b828054828255906000526020600020906007016008900481019282156116545791602002820160005b838211156116d157835183826101000a81548163ffffffff021916908363ffffffff160217905550926020019260040160208160030104928301926001030261168d565b80156117015782816101000a81549063ffffffff02191690556004016020816003010492830192600103026116d1565b50506116609291505b5b80821115611660576000815560010161170b565b6000806040838503121561173257600080fd5b50508035926020909101359150565b60006020828403121561175357600080fd5b5035919050565b60008083601f84011261176c57600080fd5b50813567ffffffffffffffff81111561178457600080fd5b6020830191508360208285010111156114f557600080fd5b60008060008060008060008060a0898b0312156117b857600080fd5b88359750602089013567ffffffffffffffff808211156117d757600080fd5b6117e38c838d0161175a565b909950975060408b01359150808211156117fc57600080fd5b6118088c838d0161175a565b909750955060608b013591508082111561182157600080fd5b5061182e8b828c0161175a565b999c989b50969995989497949560800135949350505050565b6001600160a01b03811681146110fd57600080fd5b6000806040838503121561186f57600080fd5b823561187a81611847565b946020939093013593505050565b60006020828403121561189a57600080fd5b81356118a581611847565b9392505050565b6020808252825160608383015280516080840181905260009291820190839060a08601905b808310156118fa5783516001600160a01b031682529284019260019290920191908401906118d1565b5086840151868203601f190160408801528051808352908501935090840191506000905b8082101561194457835163ffffffff16835292840192918401916001919091019061191e565b505060408601516001600160a01b0381166060870152925095945050505050565b60008083601f84011261197757600080fd5b50813567ffffffffffffffff81111561198f57600080fd5b6020830191508360208260051b85010111156114f557600080fd5b600080600080600080608087890312156119c357600080fd5b86359550602087013567ffffffffffffffff808211156119e257600080fd5b6119ee8a838b01611965565b90975095506040890135915080821115611a0757600080fd5b50611a1489828a01611965565b9094509250506060870135611a2881611847565b809150509295509295509295565b6020808252825182820181905260009190848201906040850190845b81811015611a6e57835183529284019291840191600101611a52565b50909695505050505050565b634e487b7160e01b600052601160045260246000fd5b808201808211156115f9576115f9611a7a565b818103818111156115f9576115f9611a7a565b634e487b7160e01b600052603260045260246000fd5b600060018201611ade57611ade611a7a565b5060010190565b6000606082018583526020606081850152818651808452608086019150828801935060005b81811015611b2f5784516001600160a01b031683529383019391830191600101611b0a565b50508481036040860152855180825290820192508186019060005b81811015611b6c57825163ffffffff1685529383019391830191600101611b4a565b509298975050505050505050565b600060208284031215611b8c57600080fd5b81516118a581611847565b604081526000835180604084015260005b81811015611bc55760208187018101516060868401015201611ba8565b506000606082850101526060601f19601f8301168401019150508260208301529392505050565b63ffffffff818116838216019080821115611c0957611c09611a7a565b5092915050565b80820281158282048414176115f9576115f9611a7a565b634e487b7160e01b600052604160045260246000fd5b600082611c5a57634e487b7160e01b600052601260045260246000fd5b50049056fea2646970667358221220e6a4e04c6a537561032492037b1e1013b93aba20741b316672d37f999bc14c7c64736f6c63430008150033",
    "linkReferences": {}
  },
  "methodIdentifiers": {
    "activateValidator(uint256,bytes,bytes,bytes,bytes32)": "3d2a840b",
    "cancelContribution(uint256)": "368e571b",
    "contributeToValidator(uint256)": "0dfa4164",
    "getUserContributions(address)": "e36465a3",
    "getValidatorInfo(uint256)": "b7797537",
    "owner()": "8da5cb5b",
    "registerValidator(uint256,address[],uint32[],address)": "df5bc75c",
    "renounceOwnership()": "715018a6",
    "s_isValidatorActive(uint256)": "7e24af48",
    "s_userContributedTo(address,uint256)": "6ec299b1",
    "s_validatorContributions(address,uint256)": "c0360537",
    "s_validatorContributors(uint256,uint256)": "0b7ccd54",
    "s_validatorFeeSplitter(uint256)": "3e389504",
    "s_validatorOwr(uint256)": "89c574da",
    "s_validatorTotalContributions(uint256)": "2e8d5bb8",
    "setNftManager(address)": "766795cf",
    "setOwrFactory(address)": "a3b0f235",
    "transferOwnership(address)": "f2fde38b"
  },
  "id": 32
}