{
  "abi": [
    {
      "inputs": [
        {
          "internalType": "address",
          "name": "initialOwner",
          "type": "address"
        }
      ],
      "stateMutability": "nonpayable",
      "type": "constructor"
    },
    {
      "inputs": [
        {
          "internalType": "address",
          "name": "owner",
          "type": "address"
        }
      ],
      "name": "OwnableInvalidOwner",
      "type": "error"
    },
    {
      "inputs": [
        {
          "internalType": "address",
          "name": "account",
          "type": "address"
        }
      ],
      "name": "OwnableUnauthorizedAccount",
      "type": "error"
    },
    {
      "anonymous": false,
      "inputs": [
        {
          "indexed": true,
          "internalType": "address",
          "name": "previousOwner",
          "type": "address"
        },
        {
          "indexed": true,
          "internalType": "address",
          "name": "newOwner",
          "type": "address"
        }
      ],
      "name": "OwnershipTransferred",
      "type": "event"
    },
    {
      "inputs": [
        {
          "internalType": "uint256",
          "name": "validatorId",
          "type": "uint256"
        },
        {
          "internalType": "bytes",
          "name": "pubkey",
          "type": "bytes"
        },
        {
          "internalType": "bytes",
          "name": "withdrawal_credentials",
          "type": "bytes"
        },
        {
          "internalType": "bytes",
          "name": "signature",
          "type": "bytes"
        },
        {
          "internalType": "bytes32",
          "name": "deposit_data_root",
          "type": "bytes32"
        }
      ],
      "name": "activateValidator",
      "outputs": [],
      "stateMutability": "nonpayable",
      "type": "function"
    },
    {
      "inputs": [
        {
          "internalType": "uint256",
          "name": "validatorId",
          "type": "uint256"
        }
      ],
      "name": "cancelContribution",
      "outputs": [],
      "stateMutability": "nonpayable",
      "type": "function"
    },
    {
      "inputs": [
        {
          "internalType": "uint256",
          "name": "validatorId",
          "type": "uint256"
        }
      ],
      "name": "contributeToValidator",
      "outputs": [],
      "stateMutability": "payable",
      "type": "function"
    },
    {
      "inputs": [
        {
          "internalType": "address",
          "name": "user",
          "type": "address"
        }
      ],
      "name": "getUserContributions",
      "outputs": [
        {
          "internalType": "uint256[]",
          "name": "",
          "type": "uint256[]"
        }
      ],
      "stateMutability": "view",
      "type": "function"
    },
    {
      "inputs": [
        {
          "internalType": "uint256",
          "name": "validatorId",
          "type": "uint256"
        }
      ],
      "name": "getValidatorInfo",
      "outputs": [
        {
          "components": [
            {
              "internalType": "address[]",
              "name": "feeAddresses",
              "type": "address[]"
            },
            {
              "internalType": "uint32[]",
              "name": "percentAllocations",
              "type": "uint32[]"
            },
            {
              "internalType": "address",
              "name": "signer",
              "type": "address"
            }
          ],
          "internalType": "struct SquadFiDeposits.ValidatorInfo",
          "name": "",
          "type": "tuple"
        }
      ],
      "stateMutability": "view",
      "type": "function"
    },
    {
      "inputs": [],
      "name": "owner",
      "outputs": [
        {
          "internalType": "address",
          "name": "",
          "type": "address"
        }
      ],
      "stateMutability": "view",
      "type": "function"
    },
    {
      "inputs": [
        {
          "internalType": "uint256",
          "name": "validatorId",
          "type": "uint256"
        },
        {
          "internalType": "address[]",
          "name": "feeAddresses",
          "type": "address[]"
        },
        {
          "internalType": "uint32[]",
          "name": "percentAllocations",
          "type": "uint32[]"
        },
        {
          "internalType": "address",
          "name": "signer",
          "type": "address"
        }
      ],
      "name": "registerValidator",
      "outputs": [],
      "stateMutability": "nonpayable",
      "type": "function"
    },
    {
      "inputs": [],
      "name": "renounceOwnership",
      "outputs": [],
      "stateMutability": "nonpayable",
      "type": "function"
    },
    {
      "inputs": [
        {
          "internalType": "uint256",
          "name": "",
          "type": "uint256"
        }
      ],
      "name": "s_isValidatorActive",
      "outputs": [
        {
          "internalType": "bool",
          "name": "",
          "type": "bool"
        }
      ],
      "stateMutability": "view",
      "type": "function"
    },
    {
      "inputs": [
        {
          "internalType": "address",
          "name": "",
          "type": "address"
        },
        {
          "internalType": "uint256",
          "name": "",
          "type": "uint256"
        }
      ],
      "name": "s_userContributedTo",
      "outputs": [
        {
          "internalType": "uint256",
          "name": "",
          "type": "uint256"
        }
      ],
      "stateMutability": "view",
      "type": "function"
    },
    {
      "inputs": [
        {
          "internalType": "address",
          "name": "",
          "type": "address"
        },
        {
          "internalType": "uint256",
          "name": "",
          "type": "uint256"
        }
      ],
      "name": "s_validatorContributions",
      "outputs": [
        {
          "internalType": "uint256",
          "name": "",
          "type": "uint256"
        }
      ],
      "stateMutability": "view",
      "type": "function"
    },
    {
      "inputs": [
        {
          "internalType": "uint256",
          "name": "",
          "type": "uint256"
        },
        {
          "internalType": "uint256",
          "name": "",
          "type": "uint256"
        }
      ],
      "name": "s_validatorContributors",
      "outputs": [
        {
          "internalType": "address",
          "name": "",
          "type": "address"
        }
      ],
      "stateMutability": "view",
      "type": "function"
    },
    {
      "inputs": [
        {
          "internalType": "uint256",
          "name": "",
          "type": "uint256"
        }
      ],
      "name": "s_validatorFeeSplitter",
      "outputs": [
        {
          "internalType": "address",
          "name": "",
          "type": "address"
        }
      ],
      "stateMutability": "view",
      "type": "function"
    },
    {
      "inputs": [
        {
          "internalType": "uint256",
          "name": "",
          "type": "uint256"
        }
      ],
      "name": "s_validatorOwr",
      "outputs": [
        {
          "internalType": "address",
          "name": "",
          "type": "address"
        }
      ],
      "stateMutability": "view",
      "type": "function"
    },
    {
      "inputs": [
        {
          "internalType": "uint256",
          "name": "",
          "type": "uint256"
        }
      ],
      "name": "s_validatorTotalContributions",
      "outputs": [
        {
          "internalType": "uint256",
          "name": "",
          "type": "uint256"
        }
      ],
      "stateMutability": "view",
      "type": "function"
    },
    {
      "inputs": [
        {
          "internalType": "address",
          "name": "_ethDepositContract",
          "type": "address"
        }
      ],
      "name": "setEthDepositContract",
      "outputs": [],
      "stateMutability": "nonpayable",
      "type": "function"
    },
    {
      "inputs": [
        {
          "internalType": "address",
          "name": "_nftManager",
          "type": "address"
        }
      ],
      "name": "setNftManager",
      "outputs": [],
      "stateMutability": "nonpayable",
      "type": "function"
    },
    {
      "inputs": [
        {
          "internalType": "address",
          "name": "_owrFactory",
          "type": "address"
        }
      ],
      "name": "setOwrFactory",
      "outputs": [],
      "stateMutability": "nonpayable",
      "type": "function"
    },
    {
      "inputs": [
        {
          "internalType": "address",
          "name": "_rocketNodeDeposit",
          "type": "address"
        }
      ],
      "name": "setRocketNodeDeposit",
      "outputs": [],
      "stateMutability": "nonpayable",
      "type": "function"
    },
    {
      "inputs": [
        {
          "internalType": "address",
          "name": "_rocketNodeManager",
          "type": "address"
        }
      ],
      "name": "setRocketNodeManager",
      "outputs": [],
      "stateMutability": "nonpayable",
      "type": "function"
    },
    {
      "inputs": [
        {
          "internalType": "address",
          "name": "newOwner",
          "type": "address"
        }
      ],
      "name": "transferOwnership",
      "outputs": [],
      "stateMutability": "nonpayable",
      "type": "function"
    }
  ],
  "bytecode": {
    "object": "0x60806040523480156200001157600080fd5b5060405162001e9d38038062001e9d8339810160408190526200003491620000c7565b806001600160a01b0381166200006457604051631e4fbdf760e01b81526000600482015260240160405180910390fd5b6200006f8162000077565b5050620000f9565b600080546001600160a01b038381166001600160a01b0319831681178455604051919092169283917f8be0079c531659141344cd1fd0a4f28419497f9722a3daafe3b4186f6b6457e09190a35050565b600060208284031215620000da57600080fd5b81516001600160a01b0381168114620000f257600080fd5b9392505050565b611d9480620001096000396000f3fe60806040526004361061012a5760003560e01c8063843bad14116100ab578063a6a000ef1161006f578063a6a000ef1461037b578063b77975371461039b578063c0360537146103c8578063df5bc75c14610400578063e36465a314610420578063f2fde38b1461044d57600080fd5b8063843bad14146102c75780638470edbf146102e757806389c574da146103075780638da5cb5b1461033d578063a3b0f2351461035b57600080fd5b80633e389504116100f25780633e389504146101fc5780636ec299b114610232578063715018a614610252578063766795cf146102675780637e24af481461028757600080fd5b80630b7ccd541461012f5780630dfa41641461016c5780632e8d5bb814610181578063368e571b146101bc5780633d2a840b146101dc575b600080fd5b34801561013b57600080fd5b5061014f61014a36600461181e565b61046d565b6040516001600160a01b0390911681526020015b60405180910390f35b61017f61017a366004611840565b6104a5565b005b34801561018d57600080fd5b506101ae61019c366004611840565b60046020526000908152604090205481565b604051908152602001610163565b3480156101c857600080fd5b5061017f6101d7366004611840565b6106c6565b3480156101e857600080fd5b5061017f6101f736600461189b565b6108d5565b34801561020857600080fd5b5061014f610217366004611840565b6008602052600090815260409020546001600160a01b031681565b34801561023e57600080fd5b506101ae61024d36600461195b565b610c38565b34801561025e57600080fd5b5061017f610c69565b34801561027357600080fd5b5061017f610282366004611987565b610c7d565b34801561029357600080fd5b506102b76102a2366004611840565b60026020526000908152604090205460ff1681565b6040519015158152602001610163565b3480156102d357600080fd5b5061017f6102e2366004611987565b610ca7565b3480156102f357600080fd5b5061017f610302366004611987565b610cd1565b34801561031357600080fd5b5061014f610322366004611840565b6007602052600090815260409020546001600160a01b031681565b34801561034957600080fd5b506000546001600160a01b031661014f565b34801561036757600080fd5b5061017f610376366004611987565b610cfb565b34801561038757600080fd5b5061017f610396366004611987565b610d25565b3480156103a757600080fd5b506103bb6103b6366004611840565b610d4f565b60405161016391906119ab565b3480156103d457600080fd5b506101ae6103e336600461195b565b600360209081526000928352604080842090915290825290205481565b34801561040c57600080fd5b5061017f61041b366004611aa9565b610ed8565b34801561042c57600080fd5b5061044061043b366004611987565b611155565b6040516101639190611b35565b34801561045957600080fd5b5061017f610468366004611987565b6111c1565b6006602052816000526040600020818154811061048957600080fd5b6000918252602090912001546001600160a01b03169150829050565b6000600460008381526020019081526020016000205490506104f560405180604001604052806016815260200175746f74616c436f6e747269627574696f6e733a20257360501b815250826111ff565b60008281526006602090815260408220805460018101825590835291200180546001600160a01b031916331790556801bc16d674ec8000006105373483611b8f565b11156105fe576000610552826801bc16d674ec800000611ba2565b905060006801bc16d674ec80000061056a3485611b8f565b6105749190611ba2565b604051909150339082156108fc029083906000818181858888f193505050501580156105a4573d6000803e3d6000fd5b50336000908152600360209081526040808320878452909152812080548492906105cf908490611b8f565b909155505033600090815260056020908152604082208054600181018255908352912001849055506106509050565b33600090815260036020908152604080832085845290915281208054349290610628908490611b8f565b9091555050336000908152600560209081526040822080546001810182559083529120018290555b6000828152600460205260408120805434929061066e908490611b8f565b925050819055506106c260405180604001604052806018815260200177746f74616c436f6e747269627574696f6e7332203a20257360401b81525060046000858152602001908152602001600020546111ff565b5050565b6107186040518060400160405280601781526020017f746f74616c436f6e747269627574696f6e73203a20257300000000000000000081525060046000848152602001908152602001600020546111ff565b336000908152600360209081526040808320848452825280832080549084905560049092528220805491928392610750908490611ba2565b9091555050336000908152600560205260408120905b81548110156107c5578382828154811061078257610782611bb5565b9060005260206000200154036107b35760008282815481106107a6576107a6611bb5565b6000918252602090912001555b806107bd81611bcb565b915050610766565b506000838152600660205260408120905b815481101561085357336001600160a01b03168282815481106107fb576107fb611bb5565b6000918252602090912001546001600160a01b0316036108415781818154811061082757610827611bb5565b600091825260209091200180546001600160a01b03191690555b8061084b81611bcb565b9150506107d6565b50604051339084156108fc029085906000818181858888f19350505050158015610881573d6000803e3d6000fd5b506108cf60405180604001604052806018815260200177746f74616c436f6e747269627574696f6e7332203a20257360401b81525060046000878152602001908152602001600020546111ff565b50505050565b60008881526002602052604090205460ff16156109395760405162461bcd60e51b815260206004820152601860248201527f76616c696461746f7220616c726561647920616374697665000000000000000060448201526064015b60405180910390fd5b6000888152600460205260409020546801bc16d674ec8000008110156109985760405162461bcd60e51b81526020600482015260146024820152731a5b9d985b1a59081cdd185ad948185b5bdd5b9d60621b6044820152606401610930565b60008981526001602090815260408083208151815460809481028201850190935260608101838152909391928492849190840182828015610a0257602002820191906000526020600020905b81546001600160a01b031681526001909101906020018083116109e4575b5050505050815260200160018201805480602002602001604051908101604052809291908181526020018280548015610a8657602002820191906000526020600020906000905b82829054906101000a900463ffffffff1663ffffffff1681526020019060040190602082600301049283019260010382029150808411610a495790505b5050509183525050600291909101546001600160a01b039081166020909201919091526040820151919250163314610af15760405162461bcd60e51b815260206004820152600e60248201526d34b73b30b634b21039b4b3b732b960911b6044820152606401610930565b600080610afe8c84611244565b915091506000600a60009054906101000a90046001600160a01b03166001600160a01b031663e958b1278e85856040518463ffffffff1660e01b8152600401610b4993929190611be4565b6020604051808303816000875af1158015610b68573d6000803e3d6000fd5b505050506040513d601f19601f82011682018060405250810190610b8c9190611c79565b60008e815260086020908152604080832080546001600160a01b0319166001600160a01b038681169182179092556007909352928190205460095491516350b2b4a960e11b8152908416600482018190526024820193909352939450909291169063a165695290604401600060405180830381600087803b158015610c1057600080fd5b505af1158015610c24573d6000803e3d6000fd5b505050505050505050505050505050505050565b60056020528160005260406000208181548110610c5457600080fd5b90600052602060002001600091509150505481565b610c716115fb565b610c7b6000611628565b565b610c856115fb565b600a80546001600160a01b0319166001600160a01b0392909216919091179055565b610caf6115fb565b600b80546001600160a01b0319166001600160a01b0392909216919091179055565b610cd96115fb565b600c80546001600160a01b0319166001600160a01b0392909216919091179055565b610d036115fb565b600980546001600160a01b0319166001600160a01b0392909216919091179055565b610d2d6115fb565b600d80546001600160a01b0319166001600160a01b0392909216919091179055565b60408051606080820183528082526020820152600091810191909152600082815260016020526040902054610dc65760405162461bcd60e51b815260206004820152601860248201527f56616c696461746f72206e6f74207265676973746572656400000000000000006044820152606401610930565b60008281526001602090815260409182902082518154608093810282018401909452606081018481529093919284928491840182828015610e3057602002820191906000526020600020905b81546001600160a01b03168152600190910190602001808311610e12575b5050505050815260200160018201805480602002602001604051908101604052809291908181526020018280548015610eb457602002820191906000526020600020906000905b82829054906101000a900463ffffffff1663ffffffff1681526020019060040190602082600301049283019260010382029150808411610e775790505b5050509183525050600291909101546001600160a01b031660209091015292915050565b6001841015610f345760405162461bcd60e51b815260206004820152602260248201527f6d7573742068617665206174206c65617374206f6e6520666565206164647265604482015261737360f01b6064820152608401610930565b838214610fb45760405162461bcd60e51b815260206004820152604260248201527f6d7573742068617665207468652073616d65206e756d626572206f662066656560448201527f2061646472657373657320616e642070657263656e7420616c6c6f636174696f6064820152616e7360f01b608482015260a401610930565b600954604051632083c55960e11b8152306004820181905260248201526801bc16d674ec80000060448201526000916001600160a01b0316906341078ab2906064016020604051808303816000875af1158015611015573d6000803e3d6000fd5b505050506040513d601f19601f820116820180604052508101906110399190611c79565b60008881526007602090815260409182902080546001600160a01b0319166001600160a01b03851617905581519088028082016080908101909352606082018981529394509092839290918a918a918291860190849080828437600092019190915250505090825250604080516020878102828101820190935287825292830192909188918891829185019084908082843760009201829052509385525050506001600160a01b0385166020928301528981526001825260409020825180519192611109928492909101906116fe565b5060208281015180516111229260018501920190611763565b5060409190910151600290910180546001600160a01b0319166001600160a01b0390921691909117905550505050505050565b6001600160a01b0381166000908152600560209081526040918290208054835181840281018401909452808452606093928301828280156111b557602002820191906000526020600020905b8154815260200190600101908083116111a1575b50505050509050919050565b6111c96115fb565b6001600160a01b0381166111f357604051631e4fbdf760e01b815260006004820152602401610930565b6111fc81611628565b50565b6106c28282604051602401611215929190611c96565b60408051601f198184030181529190526020810180516001600160e01b03166309710a9d60e41b179052611678565b6060806000805b84602001515181101561129c5760008560200151828151811061127057611270611bb5565b6020026020010151905080836112869190611ceb565b925050808061129490611bcb565b91505061124b565b50600063ffffffff82166112b4620f42406064611d0f565b6112be9190611ba2565b855151600088815260066020526040812054929350916112de9190611b8f565b905060008167ffffffffffffffff8111156112fb576112fb611d26565b604051908082528060200260200182016040528015611324578160200160208202803683370190505b50905060008267ffffffffffffffff81111561134257611342611d26565b60405190808252806020026020018201604052801561136b578160200160208202803683370190505b5090506000805b60008b8152600660205260409020548110156114cf5760008b81526006602052604081208054839081106113a8576113a8611bb5565b9060005260206000200160009054906101000a90046001600160a01b03169050600060036000836001600160a01b03166001600160a01b0316815260200190815260200160002060008e815260200190815260200160002054905060006001600160a01b0316826001600160a01b0316148015611423575080155b1561142f5750506114bd565b60006801bc16d674ec800000611445838b611d0f565b61144f9190611d3c565b90508287868151811061146457611464611bb5565b60200260200101906001600160a01b031690816001600160a01b0316815250508086868151811061149757611497611bb5565b63ffffffff90921660209283029190910190910152846114b681611bcb565b9550505050505b806114c781611bcb565b915050611372565b5060005b8951518110156115e95760008a6000015182815181106114f5576114f5611bb5565b6020026020010151905060008b60200151838151811061151757611517611bb5565b60200260200101519050600061152d8388611699565b905080196115a2578287868151811061154857611548611bb5565b60200260200101906001600160a01b031690816001600160a01b0316815250508186868151811061157b5761157b611bb5565b63ffffffff909216602092830291909101909101528461159a81611bcb565b9550506115d3565b818682815181106115b5576115b5611bb5565b602002602001018181516115c99190611ceb565b63ffffffff169052505b50505080806115e190611bcb565b9150506114d3565b509196509450505050505b9250929050565b6000546001600160a01b03163314610c7b5760405163118cdaa760e01b8152336004820152602401610930565b600080546001600160a01b038381166001600160a01b0319831681178455604051919092169283917f8be0079c531659141344cd1fd0a4f28419497f9722a3daafe3b4186f6b6457e09190a35050565b80516a636f6e736f6c652e6c6f67602083016000808483855afa5050505050565b6000805b82518110156116f157836001600160a01b03168382815181106116c2576116c2611bb5565b60200260200101516001600160a01b0316036116df5790506116f8565b806116e981611bcb565b91505061169d565b5060001990505b92915050565b828054828255906000526020600020908101928215611753579160200282015b8281111561175357825182546001600160a01b0319166001600160a01b0390911617825560209092019160019091019061171e565b5061175f929150611809565b5090565b828054828255906000526020600020906007016008900481019282156117535791602002820160005b838211156117d057835183826101000a81548163ffffffff021916908363ffffffff160217905550926020019260040160208160030104928301926001030261178c565b80156118005782816101000a81549063ffffffff02191690556004016020816003010492830192600103026117d0565b505061175f9291505b5b8082111561175f576000815560010161180a565b6000806040838503121561183157600080fd5b50508035926020909101359150565b60006020828403121561185257600080fd5b5035919050565b60008083601f84011261186b57600080fd5b50813567ffffffffffffffff81111561188357600080fd5b6020830191508360208285010111156115f457600080fd5b60008060008060008060008060a0898b0312156118b757600080fd5b88359750602089013567ffffffffffffffff808211156118d657600080fd5b6118e28c838d01611859565b909950975060408b01359150808211156118fb57600080fd5b6119078c838d01611859565b909750955060608b013591508082111561192057600080fd5b5061192d8b828c01611859565b999c989b50969995989497949560800135949350505050565b6001600160a01b03811681146111fc57600080fd5b6000806040838503121561196e57600080fd5b823561197981611946565b946020939093013593505050565b60006020828403121561199957600080fd5b81356119a481611946565b9392505050565b6020808252825160608383015280516080840181905260009291820190839060a08601905b808310156119f95783516001600160a01b031682529284019260019290920191908401906119d0565b5086840151868203601f190160408801528051808352908501935090840191506000905b80821015611a4357835163ffffffff168352928401929184019160019190910190611a1d565b505060408601516001600160a01b0381166060870152925095945050505050565b60008083601f840112611a7657600080fd5b50813567ffffffffffffffff811115611a8e57600080fd5b6020830191508360208260051b85010111156115f457600080fd5b60008060008060008060808789031215611ac257600080fd5b86359550602087013567ffffffffffffffff80821115611ae157600080fd5b611aed8a838b01611a64565b90975095506040890135915080821115611b0657600080fd5b50611b1389828a01611a64565b9094509250506060870135611b2781611946565b809150509295509295509295565b6020808252825182820181905260009190848201906040850190845b81811015611b6d57835183529284019291840191600101611b51565b50909695505050505050565b634e487b7160e01b600052601160045260246000fd5b808201808211156116f8576116f8611b79565b818103818111156116f8576116f8611b79565b634e487b7160e01b600052603260045260246000fd5b600060018201611bdd57611bdd611b79565b5060010190565b6000606082018583526020606081850152818651808452608086019150828801935060005b81811015611c2e5784516001600160a01b031683529383019391830191600101611c09565b50508481036040860152855180825290820192508186019060005b81811015611c6b57825163ffffffff1685529383019391830191600101611c49565b509298975050505050505050565b600060208284031215611c8b57600080fd5b81516119a481611946565b604081526000835180604084015260005b81811015611cc45760208187018101516060868401015201611ca7565b506000606082850101526060601f19601f8301168401019150508260208301529392505050565b63ffffffff818116838216019080821115611d0857611d08611b79565b5092915050565b80820281158282048414176116f8576116f8611b79565b634e487b7160e01b600052604160045260246000fd5b600082611d5957634e487b7160e01b600052601260045260246000fd5b50049056fea26469706673582212205d608a8324d8cfcd355ce67bf5be6b553018eaa6d65d768c862e748a1713319564736f6c63430008150033",
    "linkReferences": {}
  },
  "methodIdentifiers": {
    "activateValidator(uint256,bytes,bytes,bytes,bytes32)": "3d2a840b",
    "cancelContribution(uint256)": "368e571b",
    "contributeToValidator(uint256)": "0dfa4164",
    "getUserContributions(address)": "e36465a3",
    "getValidatorInfo(uint256)": "b7797537",
    "owner()": "8da5cb5b",
    "registerValidator(uint256,address[],uint32[],address)": "df5bc75c",
    "renounceOwnership()": "715018a6",
    "s_isValidatorActive(uint256)": "7e24af48",
    "s_userContributedTo(address,uint256)": "6ec299b1",
    "s_validatorContributions(address,uint256)": "c0360537",
    "s_validatorContributors(uint256,uint256)": "0b7ccd54",
    "s_validatorFeeSplitter(uint256)": "3e389504",
    "s_validatorOwr(uint256)": "89c574da",
    "s_validatorTotalContributions(uint256)": "2e8d5bb8",
    "setEthDepositContract(address)": "843bad14",
    "setNftManager(address)": "766795cf",
    "setOwrFactory(address)": "a3b0f235",
    "setRocketNodeDeposit(address)": "a6a000ef",
    "setRocketNodeManager(address)": "8470edbf",
    "transferOwnership(address)": "f2fde38b"
  },
  "id": 32
}