{
  "abi": [
    {
      "inputs": [
        {
          "internalType": "address",
          "name": "initialOwner",
          "type": "address"
        },
        {
          "internalType": "address",
          "name": "_spliterAddress",
          "type": "address"
        },
        {
          "internalType": "address",
          "name": "_depositContract",
          "type": "address"
        }
      ],
      "stateMutability": "nonpayable",
      "type": "constructor"
    },
    {
      "inputs": [
        {
          "internalType": "address",
          "name": "sender",
          "type": "address"
        },
        {
          "internalType": "uint256",
          "name": "balance",
          "type": "uint256"
        },
        {
          "internalType": "uint256",
          "name": "needed",
          "type": "uint256"
        },
        {
          "internalType": "uint256",
          "name": "tokenId",
          "type": "uint256"
        }
      ],
      "name": "ERC1155InsufficientBalance",
      "type": "error"
    },
    {
      "inputs": [
        {
          "internalType": "address",
          "name": "approver",
          "type": "address"
        }
      ],
      "name": "ERC1155InvalidApprover",
      "type": "error"
    },
    {
      "inputs": [
        {
          "internalType": "uint256",
          "name": "idsLength",
          "type": "uint256"
        },
        {
          "internalType": "uint256",
          "name": "valuesLength",
          "type": "uint256"
        }
      ],
      "name": "ERC1155InvalidArrayLength",
      "type": "error"
    },
    {
      "inputs": [
        {
          "internalType": "address",
          "name": "operator",
          "type": "address"
        }
      ],
      "name": "ERC1155InvalidOperator",
      "type": "error"
    },
    {
      "inputs": [
        {
          "internalType": "address",
          "name": "receiver",
          "type": "address"
        }
      ],
      "name": "ERC1155InvalidReceiver",
      "type": "error"
    },
    {
      "inputs": [
        {
          "internalType": "address",
          "name": "sender",
          "type": "address"
        }
      ],
      "name": "ERC1155InvalidSender",
      "type": "error"
    },
    {
      "inputs": [
        {
          "internalType": "address",
          "name": "operator",
          "type": "address"
        },
        {
          "internalType": "address",
          "name": "owner",
          "type": "address"
        }
      ],
      "name": "ERC1155MissingApprovalForAll",
      "type": "error"
    },
    {
      "inputs": [
        {
          "internalType": "address",
          "name": "owner",
          "type": "address"
        }
      ],
      "name": "OwnableInvalidOwner",
      "type": "error"
    },
    {
      "inputs": [
        {
          "internalType": "address",
          "name": "account",
          "type": "address"
        }
      ],
      "name": "OwnableUnauthorizedAccount",
      "type": "error"
    },
    {
      "anonymous": false,
      "inputs": [
        {
          "indexed": true,
          "internalType": "address",
          "name": "account",
          "type": "address"
        },
        {
          "indexed": true,
          "internalType": "address",
          "name": "operator",
          "type": "address"
        },
        {
          "indexed": false,
          "internalType": "bool",
          "name": "approved",
          "type": "bool"
        }
      ],
      "name": "ApprovalForAll",
      "type": "event"
    },
    {
      "anonymous": false,
      "inputs": [
        {
          "indexed": true,
          "internalType": "address",
          "name": "previousOwner",
          "type": "address"
        },
        {
          "indexed": true,
          "internalType": "address",
          "name": "newOwner",
          "type": "address"
        }
      ],
      "name": "OwnershipTransferred",
      "type": "event"
    },
    {
      "anonymous": false,
      "inputs": [
        {
          "indexed": true,
          "internalType": "address",
          "name": "operator",
          "type": "address"
        },
        {
          "indexed": true,
          "internalType": "address",
          "name": "from",
          "type": "address"
        },
        {
          "indexed": true,
          "internalType": "address",
          "name": "to",
          "type": "address"
        },
        {
          "indexed": false,
          "internalType": "uint256[]",
          "name": "ids",
          "type": "uint256[]"
        },
        {
          "indexed": false,
          "internalType": "uint256[]",
          "name": "values",
          "type": "uint256[]"
        }
      ],
      "name": "TransferBatch",
      "type": "event"
    },
    {
      "anonymous": false,
      "inputs": [
        {
          "indexed": true,
          "internalType": "address",
          "name": "operator",
          "type": "address"
        },
        {
          "indexed": true,
          "internalType": "address",
          "name": "from",
          "type": "address"
        },
        {
          "indexed": true,
          "internalType": "address",
          "name": "to",
          "type": "address"
        },
        {
          "indexed": false,
          "internalType": "uint256",
          "name": "id",
          "type": "uint256"
        },
        {
          "indexed": false,
          "internalType": "uint256",
          "name": "value",
          "type": "uint256"
        }
      ],
      "name": "TransferSingle",
      "type": "event"
    },
    {
      "anonymous": false,
      "inputs": [
        {
          "indexed": false,
          "internalType": "string",
          "name": "value",
          "type": "string"
        },
        {
          "indexed": true,
          "internalType": "uint256",
          "name": "id",
          "type": "uint256"
        }
      ],
      "name": "URI",
      "type": "event"
    },
    {
      "inputs": [
        {
          "internalType": "address",
          "name": "account",
          "type": "address"
        },
        {
          "internalType": "uint256",
          "name": "id",
          "type": "uint256"
        }
      ],
      "name": "balanceOf",
      "outputs": [
        {
          "internalType": "uint256",
          "name": "",
          "type": "uint256"
        }
      ],
      "stateMutability": "view",
      "type": "function"
    },
    {
      "inputs": [
        {
          "internalType": "address[]",
          "name": "accounts",
          "type": "address[]"
        },
        {
          "internalType": "uint256[]",
          "name": "ids",
          "type": "uint256[]"
        }
      ],
      "name": "balanceOfBatch",
      "outputs": [
        {
          "internalType": "uint256[]",
          "name": "",
          "type": "uint256[]"
        }
      ],
      "stateMutability": "view",
      "type": "function"
    },
    {
      "inputs": [
        {
          "internalType": "address",
          "name": "account",
          "type": "address"
        },
        {
          "internalType": "address",
          "name": "operator",
          "type": "address"
        }
      ],
      "name": "isApprovedForAll",
      "outputs": [
        {
          "internalType": "bool",
          "name": "",
          "type": "bool"
        }
      ],
      "stateMutability": "view",
      "type": "function"
    },
    {
      "inputs": [
        {
          "internalType": "uint256",
          "name": "validatorId",
          "type": "uint256"
        },
        {
          "internalType": "address[]",
          "name": "feeRecipients",
          "type": "address[]"
        },
        {
          "internalType": "uint32[]",
          "name": "feePercentages",
          "type": "uint32[]"
        }
      ],
      "name": "mintBatch",
      "outputs": [
        {
          "internalType": "address",
          "name": "newSpliterAddress",
          "type": "address"
        }
      ],
      "stateMutability": "nonpayable",
      "type": "function"
    },
    {
      "inputs": [],
      "name": "owner",
      "outputs": [
        {
          "internalType": "address",
          "name": "",
          "type": "address"
        }
      ],
      "stateMutability": "view",
      "type": "function"
    },
    {
      "inputs": [],
      "name": "renounceOwnership",
      "outputs": [],
      "stateMutability": "nonpayable",
      "type": "function"
    },
    {
      "inputs": [
        {
          "internalType": "uint256",
          "name": "",
          "type": "uint256"
        },
        {
          "internalType": "uint256",
          "name": "",
          "type": "uint256"
        }
      ],
      "name": "s_validatorSplitFeeAddresses",
      "outputs": [
        {
          "internalType": "address",
          "name": "",
          "type": "address"
        }
      ],
      "stateMutability": "view",
      "type": "function"
    },
    {
      "inputs": [
        {
          "internalType": "uint256",
          "name": "",
          "type": "uint256"
        },
        {
          "internalType": "uint256",
          "name": "",
          "type": "uint256"
        }
      ],
      "name": "s_validatorSplitFeePercentages",
      "outputs": [
        {
          "internalType": "uint32",
          "name": "",
          "type": "uint32"
        }
      ],
      "stateMutability": "view",
      "type": "function"
    },
    {
      "inputs": [
        {
          "internalType": "address",
          "name": "from",
          "type": "address"
        },
        {
          "internalType": "address",
          "name": "to",
          "type": "address"
        },
        {
          "internalType": "uint256[]",
          "name": "ids",
          "type": "uint256[]"
        },
        {
          "internalType": "uint256[]",
          "name": "values",
          "type": "uint256[]"
        },
        {
          "internalType": "bytes",
          "name": "data",
          "type": "bytes"
        }
      ],
      "name": "safeBatchTransferFrom",
      "outputs": [],
      "stateMutability": "nonpayable",
      "type": "function"
    },
    {
      "inputs": [
        {
          "internalType": "address",
          "name": "from",
          "type": "address"
        },
        {
          "internalType": "address",
          "name": "to",
          "type": "address"
        },
        {
          "internalType": "uint256",
          "name": "id",
          "type": "uint256"
        },
        {
          "internalType": "uint256",
          "name": "amount",
          "type": "uint256"
        },
        {
          "internalType": "bytes",
          "name": "data",
          "type": "bytes"
        }
      ],
      "name": "safeTransferFrom",
      "outputs": [],
      "stateMutability": "nonpayable",
      "type": "function"
    },
    {
      "inputs": [
        {
          "internalType": "address",
          "name": "operator",
          "type": "address"
        },
        {
          "internalType": "bool",
          "name": "approved",
          "type": "bool"
        }
      ],
      "name": "setApprovalForAll",
      "outputs": [],
      "stateMutability": "nonpayable",
      "type": "function"
    },
    {
      "inputs": [
        {
          "internalType": "string",
          "name": "baseUri",
          "type": "string"
        }
      ],
      "name": "setURI",
      "outputs": [],
      "stateMutability": "nonpayable",
      "type": "function"
    },
    {
      "inputs": [
        {
          "internalType": "bytes4",
          "name": "interfaceId",
          "type": "bytes4"
        }
      ],
      "name": "supportsInterface",
      "outputs": [
        {
          "internalType": "bool",
          "name": "",
          "type": "bool"
        }
      ],
      "stateMutability": "view",
      "type": "function"
    },
    {
      "inputs": [
        {
          "internalType": "address",
          "name": "newOwner",
          "type": "address"
        }
      ],
      "name": "transferOwnership",
      "outputs": [],
      "stateMutability": "nonpayable",
      "type": "function"
    },
    {
      "inputs": [
        {
          "internalType": "uint256",
          "name": "tokenId",
          "type": "uint256"
        }
      ],
      "name": "uri",
      "outputs": [
        {
          "internalType": "string",
          "name": "",
          "type": "string"
        }
      ],
      "stateMutability": "view",
      "type": "function"
    }
  ],
  "bytecode": {
    "object": "0x60e0604052600060c09081526003906200001a9082620001c5565b503480156200002857600080fd5b5060405162002434380380620024348339810160408190526200004b91620002ae565b60408051602081019091526000815283906200006781620000bc565b506001600160a01b0381166200009757604051631e4fbdf760e01b81526000600482015260240160405180910390fd5b620000a281620000ce565b506001600160a01b039182166080521660a05250620002f8565b6002620000ca8282620001c5565b5050565b600580546001600160a01b038381166001600160a01b0319831681179093556040519116919082907f8be0079c531659141344cd1fd0a4f28419497f9722a3daafe3b4186f6b6457e090600090a35050565b634e487b7160e01b600052604160045260246000fd5b600181811c908216806200014b57607f821691505b6020821081036200016c57634e487b7160e01b600052602260045260246000fd5b50919050565b601f821115620001c057600081815260208120601f850160051c810160208610156200019b5750805b601f850160051c820191505b81811015620001bc57828155600101620001a7565b5050505b505050565b81516001600160401b03811115620001e157620001e162000120565b620001f981620001f2845462000136565b8462000172565b602080601f831160018114620002315760008415620002185750858301515b600019600386901b1c1916600185901b178555620001bc565b600085815260208120601f198616915b82811015620002625788860151825594840194600190910190840162000241565b5085821015620002815787850151600019600388901b60f8161c191681555b5050505050600190811b01905550565b80516001600160a01b0381168114620002a957600080fd5b919050565b600080600060608486031215620002c457600080fd5b620002cf8462000291565b9250620002df6020850162000291565b9150620002ef6040850162000291565b90509250925092565b60805160a0516121196200031b60003960006105ae0152600050506121196000f3fe608060405234801561001057600080fd5b50600436106100f45760003560e01c80634e1273f411610097578063e958b12711610066578063e958b12714610229578063e985e9c51461023c578063f242432a1461024f578063f2fde38b1461026257600080fd5b80634e1273f4146101dd578063715018a6146101fd5780638da5cb5b14610205578063a22cb4651461021657600080fd5b80630e89341c116100d35780630e89341c1461015757806324d80af2146101775780632eb2c2d6146101a257806343b23307146101b557600080fd5b8062fdd58e146100f957806301ffc9a71461011f57806302fe530514610142575b600080fd5b61010c61010736600461174f565b610275565b6040519081526020015b60405180910390f35b61013261012d36600461178f565b61029d565b6040519015158152602001610116565b61015561015036600461184b565b6102ed565b005b61016a610165366004611894565b610301565b60405161011691906118fd565b61018a610185366004611910565b61035f565b6040516001600160a01b039091168152602001610116565b6101556101b03660046119e1565b610397565b6101c86101c3366004611910565b610460565b60405163ffffffff9091168152602001610116565b6101f06101eb366004611aed565b6104a9565b6040516101169190611b8c565b61015561057e565b6005546001600160a01b031661018a565b610155610224366004611b9f565b610592565b61018a610237366004611bdb565b6105a1565b61013261024a366004611cb1565b61078a565b61015561025d366004611ce4565b6107b8565b610155610270366004611d49565b610823565b6000818152602081815260408083206001600160a01b03861684529091529020545b92915050565b60006001600160e01b03198216636cdb3d1360e11b14806102ce57506001600160e01b031982166303a24d0760e21b145b8061029757506301ffc9a760e01b6001600160e01b0319831614610297565b6102f561085e565b6102fe8161088b565b50565b6060600061030f6000610301565b9050600061031c84610897565b9050836000036103345761032f8461092a565b610357565b8181604051602001610347929190611d64565b6040516020818303038152906040525b949350505050565b6007602052816000526040600020818154811061037b57600080fd5b6000918252602090912001546001600160a01b03169150829050565b336001600160a01b03861681148015906103b857506103b6868261078a565b155b156103ee5760405163711bec9160e11b81526001600160a01b038083166004830152871660248201526044015b60405180910390fd5b60005b845181101561044a57610438878787848151811061041157610411611d93565b602002602001015187858151811061042b5761042b611d93565b6020026020010151610a0a565b8061044281611dbf565b9150506103f1565b506104588686868686610b0e565b505050505050565b6008602052816000526040600020818154811061047c57600080fd5b9060005260206000209060089182820401919006600402915091509054906101000a900463ffffffff1681565b606081518351146104da5781518351604051635b05999160e01b8152600481019290925260248201526044016103e5565b6000835167ffffffffffffffff8111156104f6576104f66117ac565b60405190808252806020026020018201604052801561051f578160200160208202803683370190505b50905060005b84518110156105765760208082028601015161054990602080840287010151610275565b82828151811061055b5761055b611d93565b602090810291909101015261056f81611dbf565b9050610525565b509392505050565b61058661085e565b6105906000610b6e565b565b61059d338383610bc0565b5050565b6000336001600160a01b037f000000000000000000000000000000000000000000000000000000000000000016146105d857600080fd5b600084815260076020526040902054156106445760405162461bcd60e51b815260206004820152602760248201527f626174636820616c7265616479206d696e74656420666f7220746869732076616044820152663634b230ba37b960c91b60648201526084016103e5565b60005b835181101561071e57600084828151811061066457610664611d93565b6020026020010151905060006001600160a01b0316816001600160a01b03160361068e575061070c565b6000620f42408584815181106106a6576106a6611d93565b602002602001015163ffffffff166106be9190611dd8565b90506106dc8282600160405180602001604052806000815250610c56565b6001600160a01b038216600090815260096020908152604080832084845290915290206107099088610cb3565b50505b8061071681611dbf565b915050610647565b506000848152600760209081526040909120845161073e92860190611613565b506000848152600860209081526040909120835161075e92850190611678565b50505060009182525060066020526040902080546001600160a01b03191663075bcd1590811790915590565b6001600160a01b03918216600090815260016020908152604080832093909416825291909152205460ff1690565b336001600160a01b03861681148015906107d957506107d7868261078a565b155b1561080a5760405163711bec9160e11b81526001600160a01b038083166004830152871660248201526044016103e5565b61081686868686610a0a565b6104588686868686610d3f565b61082b61085e565b6001600160a01b03811661085557604051631e4fbdf760e01b8152600060048201526024016103e5565b6102fe81610b6e565b6005546001600160a01b031633146105905760405163118cdaa760e01b81523360048201526024016103e5565b600361059d8282611e7a565b606060006108a483610dcd565b600101905060008167ffffffffffffffff8111156108c4576108c46117ac565b6040519080825280601f01601f1916602001820160405280156108ee576020820181803683370190505b5090508181016020015b600019016f181899199a1a9b1b9c1cb0b131b232b360811b600a86061a8153600a85049450846108f857509392505050565b60008181526004602052604081208054606092919061094890611dfa565b80601f016020809104026020016040519081016040528092919081815260200182805461097490611dfa565b80156109c15780601f10610996576101008083540402835291602001916109c1565b820191906000526020600020905b8154815290600101906020018083116109a457829003601f168201915b5050505050905060008151116109df576109da83610ea5565b610a03565b6003816040516020016109f3929190611f3a565b6040516020818303038152906040525b9392505050565b60005b81811015610b07576000805b6001600160a01b0387166000908152600960209081526040808320888452909152902054811015610b00576001600160a01b03871660009081526009602090815260408083208884529091529020805482908110610a7957610a79611d93565b9060005260206000200154915081600014610aee57610a9a82888888610f39565b82610aa481611dbf565b6001600160a01b03891660009081526009602090815260408083208a845290915290208054919550915082908110610ade57610ade611d93565b6000918252602082200155610b00565b80610af881611dbf565b915050610a19565b5050610a0d565b5050505050565b6001600160a01b038416610b3857604051632bfa23e760e11b8152600060048201526024016103e5565b6001600160a01b038516610b6157604051626a0d4560e21b8152600060048201526024016103e5565b610b0785858585856110d2565b600580546001600160a01b038381166001600160a01b0319831681179093556040519116919082907f8be0079c531659141344cd1fd0a4f28419497f9722a3daafe3b4186f6b6457e090600090a35050565b6001600160a01b038216610be95760405162ced3e160e81b8152600060048201526024016103e5565b6001600160a01b03838116600081815260016020908152604080832094871680845294825291829020805460ff191686151590811790915591519182527f17307eab39ab6107e8899845ad3d59bd9653f200f220920489ca2b5937696c31910160405180910390a3505050565b6001600160a01b038416610c8057604051632bfa23e760e11b8152600060048201526024016103e5565b604080516001808252602082018690528183019081526060820185905260808201909252906104586000878484876110d2565b6000805b8354811015610d1e57838181548110610cd257610cd2611d93565b9060005260206000200154600003610d0c5782848281548110610cf757610cf7611d93565b60009182526020909120015560019150610d1e565b80610d1681611dbf565b915050610cb7565b5080610d3a578254600181018455600084815260209020018290555b505050565b6001600160a01b038416610d6957604051632bfa23e760e11b8152600060048201526024016103e5565b6001600160a01b038516610d9257604051626a0d4560e21b8152600060048201526024016103e5565b60408051600180825260208201869052818301908152606082018590526080820190925290610dc487878484876110d2565b50505050505050565b60008072184f03e93ff9f4daa797ed6e38ed64bf6a1f0160401b8310610e0c5772184f03e93ff9f4daa797ed6e38ed64bf6a1f0160401b830492506040015b6d04ee2d6d415b85acef81000000008310610e38576d04ee2d6d415b85acef8100000000830492506020015b662386f26fc100008310610e5657662386f26fc10000830492506010015b6305f5e1008310610e6e576305f5e100830492506008015b6127108310610e8257612710830492506004015b60648310610e94576064830492506002015b600a83106102975760010192915050565b606060028054610eb490611dfa565b80601f0160208091040260200160405190810160405280929190818152602001828054610ee090611dfa565b8015610f2d5780601f10610f0257610100808354040283529160200191610f2d565b820191906000526020600020905b815481529060010190602001808311610f1057829003601f168201915b50505050509050919050565b6000848152600660209081526040808320546007835281842060089093529083206001600160a01b03909116925b825481101561107757866001600160a01b0316838281548110610f8c57610f8c611d93565b6000918252602090912001546001600160a01b03160361106557610fb3620f424086611fb8565b828281548110610fc557610fc5611d93565b6000918252602090912060088204015460079091166004026101000a900463ffffffff16146110235760405162461bcd60e51b815260206004820152600a6024820152691a5b9d985b1a59081a5960b21b60448201526064016103e5565b8583828154811061103657611036611d93565b9060005260206000200160006101000a8154816001600160a01b0302191690836001600160a01b031602179055505b8061106f81611dbf565b915050610f67565b506001600160a01b038616600090815260096020908152604080832087845290915290206110a59088611125565b6001600160a01b03851660009081526009602090815260408083208784529091529020610dc49088610cb3565b6110de858585856111e9565b6001600160a01b03841615610b0757825133906001036111175760208481015190840151611110838989858589611406565b5050610458565b61045881878787878761152a565b81548190839061113790600190611fcf565b8154811061114757611147611d93565b906000526020600020015403611186578154829061116790600190611fcf565b8154811061117757611177611d93565b60009182526020822001555050565b60005b8254811015610d3a57818382815481106111a5576111a5611d93565b9060005260206000200154036111d7578281815481106111c7576111c7611d93565b6000918252602082200155505050565b806111e181611dbf565b915050611189565b80518251146112185781518151604051635b05999160e01b8152600481019290925260248201526044016103e5565b3360005b8351811015611327576020818102858101820151908501909101516001600160a01b038816156112cf576000828152602081815260408083206001600160a01b038c168452909152902054818110156112a8576040516303dee4c560e01b81526001600160a01b038a1660048201526024810182905260448101839052606481018490526084016103e5565b6000838152602081815260408083206001600160a01b038d16845290915290209082900390555b6001600160a01b03871615611314576000828152602081815260408083206001600160a01b038b1684529091528120805483929061130e908490611fe2565b90915550505b50508061132090611dbf565b905061121c565b5082516001036113a85760208301516000906020840151909150856001600160a01b0316876001600160a01b0316846001600160a01b03167fc3d58168c5ae7397731d063d5bbf3d657854427343f4c083240f7aacaa2d0f628585604051611399929190918252602082015260400190565b60405180910390a45050610b07565b836001600160a01b0316856001600160a01b0316826001600160a01b03167f4a39dc06d4c0dbc64b70af90fd698a233a518aa5d07e595d983b8c0526c8f7fb86866040516113f7929190611ff5565b60405180910390a45050505050565b6001600160a01b0384163b156104585760405163f23a6e6160e01b81526001600160a01b0385169063f23a6e619061144a9089908990889088908890600401612023565b6020604051808303816000875af1925050508015611485575060408051601f3d908101601f1916820190925261148291810190612068565b60015b6114ee573d8080156114b3576040519150601f19603f3d011682016040523d82523d6000602084013e6114b8565b606091505b5080516000036114e657604051632bfa23e760e11b81526001600160a01b03861660048201526024016103e5565b805181602001fd5b6001600160e01b0319811663f23a6e6160e01b14610dc457604051632bfa23e760e11b81526001600160a01b03861660048201526024016103e5565b6001600160a01b0384163b156104585760405163bc197c8160e01b81526001600160a01b0385169063bc197c819061156e9089908990889088908890600401612085565b6020604051808303816000875af19250505080156115a9575060408051601f3d908101601f191682019092526115a691810190612068565b60015b6115d7573d8080156114b3576040519150601f19603f3d011682016040523d82523d6000602084013e6114b8565b6001600160e01b0319811663bc197c8160e01b14610dc457604051632bfa23e760e11b81526001600160a01b03861660048201526024016103e5565b828054828255906000526020600020908101928215611668579160200282015b8281111561166857825182546001600160a01b0319166001600160a01b03909116178255602090920191600190910190611633565b5061167492915061171e565b5090565b828054828255906000526020600020906007016008900481019282156116685791602002820160005b838211156116e557835183826101000a81548163ffffffff021916908363ffffffff16021790555092602001926004016020816003010492830192600103026116a1565b80156117155782816101000a81549063ffffffff02191690556004016020816003010492830192600103026116e5565b50506116749291505b5b80821115611674576000815560010161171f565b80356001600160a01b038116811461174a57600080fd5b919050565b6000806040838503121561176257600080fd5b61176b83611733565b946020939093013593505050565b6001600160e01b0319811681146102fe57600080fd5b6000602082840312156117a157600080fd5b8135610a0381611779565b634e487b7160e01b600052604160045260246000fd5b604051601f8201601f1916810167ffffffffffffffff811182821017156117eb576117eb6117ac565b604052919050565b600067ffffffffffffffff83111561180d5761180d6117ac565b611820601f8401601f19166020016117c2565b905082815283838301111561183457600080fd5b828260208301376000602084830101529392505050565b60006020828403121561185d57600080fd5b813567ffffffffffffffff81111561187457600080fd5b8201601f8101841361188557600080fd5b610357848235602084016117f3565b6000602082840312156118a657600080fd5b5035919050565b60005b838110156118c85781810151838201526020016118b0565b50506000910152565b600081518084526118e98160208601602086016118ad565b601f01601f19169290920160200192915050565b602081526000610a0360208301846118d1565b6000806040838503121561192357600080fd5b50508035926020909101359150565b600067ffffffffffffffff82111561194c5761194c6117ac565b5060051b60200190565b600082601f83011261196757600080fd5b8135602061197c61197783611932565b6117c2565b82815260059290921b8401810191818101908684111561199b57600080fd5b8286015b848110156119b6578035835291830191830161199f565b509695505050505050565b600082601f8301126119d257600080fd5b610a03838335602085016117f3565b600080600080600060a086880312156119f957600080fd5b611a0286611733565b9450611a1060208701611733565b9350604086013567ffffffffffffffff80821115611a2d57600080fd5b611a3989838a01611956565b94506060880135915080821115611a4f57600080fd5b611a5b89838a01611956565b93506080880135915080821115611a7157600080fd5b50611a7e888289016119c1565b9150509295509295909350565b600082601f830112611a9c57600080fd5b81356020611aac61197783611932565b82815260059290921b84018101918181019086841115611acb57600080fd5b8286015b848110156119b657611ae081611733565b8352918301918301611acf565b60008060408385031215611b0057600080fd5b823567ffffffffffffffff80821115611b1857600080fd5b611b2486838701611a8b565b93506020850135915080821115611b3a57600080fd5b50611b4785828601611956565b9150509250929050565b600081518084526020808501945080840160005b83811015611b8157815187529582019590820190600101611b65565b509495945050505050565b602081526000610a036020830184611b51565b60008060408385031215611bb257600080fd5b611bbb83611733565b915060208301358015158114611bd057600080fd5b809150509250929050565b600080600060608486031215611bf057600080fd5b8335925060208085013567ffffffffffffffff80821115611c1057600080fd5b611c1c88838901611a8b565b94506040870135915080821115611c3257600080fd5b508501601f81018713611c4457600080fd5b8035611c5261197782611932565b81815260059190911b82018301908381019089831115611c7157600080fd5b928401925b82841015611ca257833563ffffffff81168114611c935760008081fd5b82529284019290840190611c76565b80955050505050509250925092565b60008060408385031215611cc457600080fd5b611ccd83611733565b9150611cdb60208401611733565b90509250929050565b600080600080600060a08688031215611cfc57600080fd5b611d0586611733565b9450611d1360208701611733565b93506040860135925060608601359150608086013567ffffffffffffffff811115611d3d57600080fd5b611a7e888289016119c1565b600060208284031215611d5b57600080fd5b610a0382611733565b60008351611d768184602088016118ad565b835190830190611d8a8183602088016118ad565b01949350505050565b634e487b7160e01b600052603260045260246000fd5b634e487b7160e01b600052601160045260246000fd5b600060018201611dd157611dd1611da9565b5060010190565b600082611df557634e487b7160e01b600052601260045260246000fd5b500490565b600181811c90821680611e0e57607f821691505b602082108103611e2e57634e487b7160e01b600052602260045260246000fd5b50919050565b601f821115610d3a57600081815260208120601f850160051c81016020861015611e5b5750805b601f850160051c820191505b8181101561045857828155600101611e67565b815167ffffffffffffffff811115611e9457611e946117ac565b611ea881611ea28454611dfa565b84611e34565b602080601f831160018114611edd5760008415611ec55750858301515b600019600386901b1c1916600185901b178555610458565b600085815260208120601f198616915b82811015611f0c57888601518255948401946001909101908401611eed565b5085821015611f2a5787850151600019600388901b60f8161c191681555b5050505050600190811b01905550565b6000808454611f4881611dfa565b60018281168015611f605760018114611f7557611fa4565b60ff1984168752821515830287019450611fa4565b8860005260208060002060005b85811015611f9b5781548a820152908401908201611f82565b50505082870194505b505050508351611d8a8183602088016118ad565b808202811582820484141761029757610297611da9565b8181038181111561029757610297611da9565b8082018082111561029757610297611da9565b6040815260006120086040830185611b51565b828103602084015261201a8185611b51565b95945050505050565b6001600160a01b03868116825285166020820152604081018490526060810183905260a06080820181905260009061205d908301846118d1565b979650505050505050565b60006020828403121561207a57600080fd5b8151610a0381611779565b6001600160a01b0386811682528516602082015260a0604082018190526000906120b190830186611b51565b82810360608401526120c38186611b51565b905082810360808401526120d781856118d1565b9897505050505050505056fea26469706673582212203bcf9fb054f7dd24e0d2041aa488ef18352d45e9f335d5dbdf3e222ad149f05664736f6c63430008150033",
    "linkReferences": {}
  },
  "methodIdentifiers": {
    "balanceOf(address,uint256)": "00fdd58e",
    "balanceOfBatch(address[],uint256[])": "4e1273f4",
    "isApprovedForAll(address,address)": "e985e9c5",
    "mintBatch(uint256,address[],uint32[])": "e958b127",
    "owner()": "8da5cb5b",
    "renounceOwnership()": "715018a6",
    "s_validatorSplitFeeAddresses(uint256,uint256)": "24d80af2",
    "s_validatorSplitFeePercentages(uint256,uint256)": "43b23307",
    "safeBatchTransferFrom(address,address,uint256[],uint256[],bytes)": "2eb2c2d6",
    "safeTransferFrom(address,address,uint256,uint256,bytes)": "f242432a",
    "setApprovalForAll(address,bool)": "a22cb465",
    "setURI(string)": "02fe5305",
    "supportsInterface(bytes4)": "01ffc9a7",
    "transferOwnership(address)": "f2fde38b",
    "uri(uint256)": "0e89341c"
  },
  "id": 33
}