{
  "abi": [
    {
      "inputs": [
        {
          "internalType": "string",
          "name": "_ensName",
          "type": "string"
        },
        {
          "internalType": "address",
          "name": "_ensReverseRegistrar",
          "type": "address"
        },
        {
          "internalType": "address",
          "name": "_ensOwner",
          "type": "address"
        },
        {
          "internalType": "address",
          "name": "_ensRegistar",
          "type": "address"
        }
      ],
      "stateMutability": "nonpayable",
      "type": "constructor"
    },
    {
      "inputs": [
        {
          "internalType": "address",
          "name": "recipient",
          "type": "address"
        },
        {
          "internalType": "bytes32",
          "name": "subdomainLabel",
          "type": "bytes32"
        }
      ],
      "name": "createOWRecipient",
      "outputs": [
        {
          "internalType": "address",
          "name": "owrAddress",
          "type": "address"
        }
      ],
      "stateMutability": "nonpayable",
      "type": "function"
    }
  ],
  "bytecode": {
    "object": "0x608060405234801561001057600080fd5b5060405161043c38038061043c83398101604081905261002f9161018d565b60405163c47f002760e01b81526001600160a01b0384169063c47f00279061005b90879060040161026d565b6020604051808303816000875af115801561007a573d6000803e3d6000fd5b505050506040513d601f19601f8201168201806040525081019061009e91906102a0565b600055604051630f41a04d60e11b81526001600160a01b038381166004830152841690631e83409a906024016020604051808303816000875af11580156100e9573d6000803e3d6000fd5b505050506040513d601f19601f8201168201806040525081019061010d91906102a0565b50600180546001600160a01b0319166001600160a01b0392909216919091179055506102b9915050565b634e487b7160e01b600052604160045260246000fd5b60005b83811015610168578181015183820152602001610150565b50506000910152565b80516001600160a01b038116811461018857600080fd5b919050565b600080600080608085870312156101a357600080fd5b84516001600160401b03808211156101ba57600080fd5b818701915087601f8301126101ce57600080fd5b8151818111156101e0576101e0610137565b604051601f8201601f19908116603f0116810190838211818310171561020857610208610137565b816040528281528a602084870101111561022157600080fd5b61023283602083016020880161014d565b809850505050505061024660208601610171565b925061025460408601610171565b915061026260608601610171565b905092959194509250565b602081526000825180602084015261028c81604085016020870161014d565b601f01601f19169190910160400192915050565b6000602082840312156102b257600080fd5b5051919050565b610174806102c86000396000f3fe608060405234801561001057600080fd5b506004361061002b5760003560e01c806378e3a6b014610030575b600080fd5b61004361003e3660046100ed565b61005f565b6040516001600160a01b03909116815260200160405180910390f35b600154600080546040516306ab592360e01b81526004810191909152602481018490526001600160a01b0385811660448301529192839216906306ab5923906064016020604051808303816000875af11580156100c0573d6000803e3d6000fd5b505050506040513d601f19601f820116820180604052508101906100e49190610125565b90505092915050565b6000806040838503121561010057600080fd5b82356001600160a01b038116811461011757600080fd5b946020939093013593505050565b60006020828403121561013757600080fd5b505191905056fea264697066735822122038789062e03f727d6b48ad5476c7cb20cf0b09be1014b7430ce11d3cabd0434264736f6c63430008150033",
    "linkReferences": {}
  },
  "methodIdentifiers": {
    "createOWRecipient(address,bytes32)": "78e3a6b0"
  },
  "id": 41
}