{
  "abi": [
    {
      "inputs": [
        {
          "internalType": "string",
          "name": "_ensName",
          "type": "string"
        },
        {
          "internalType": "address",
          "name": "_ensReverseRegistrar",
          "type": "address"
        },
        {
          "internalType": "address",
          "name": "_ensOwner",
          "type": "address"
        },
        {
          "internalType": "address",
          "name": "_ensRegistar",
          "type": "address"
        }
      ],
      "stateMutability": "nonpayable",
      "type": "constructor"
    },
    {
      "inputs": [
        {
          "internalType": "address",
          "name": "recipient",
          "type": "address"
        },
        {
          "internalType": "bytes32",
          "name": "subdomainLabel",
          "type": "bytes32"
        }
      ],
      "name": "createSubdomain",
      "outputs": [
        {
          "internalType": "bytes32",
          "name": "subnode",
          "type": "bytes32"
        }
      ],
      "stateMutability": "nonpayable",
      "type": "function"
    }
  ],
  "bytecode": {
    "object": "0x608060405234801561001057600080fd5b5060405161045a38038061045a83398101604081905261002f91610179565b61003984846100b5565b60405163c47f002760e01b81526001600160a01b0384169063c47f002790610065908790600401610285565b6020604051808303816000875af1158015610084573d6000803e3d6000fd5b505050506040513d601f19601f820116820180604052508101906100a8919061029f565b600055506102e292505050565b6100fe82826040516024016100cb9291906102b8565b60408051601f198184030181529190526020810180516001600160e01b0390811663319af33360e01b1790915261010216565b5050565b80516a636f6e736f6c652e6c6f67602083016000808483855afa5050505050565b634e487b7160e01b600052604160045260246000fd5b60005b8381101561015457818101518382015260200161013c565b50506000910152565b80516001600160a01b038116811461017457600080fd5b919050565b6000806000806080858703121561018f57600080fd5b84516001600160401b03808211156101a657600080fd5b818701915087601f8301126101ba57600080fd5b8151818111156101cc576101cc610123565b604051601f8201601f19908116603f011681019083821181831017156101f4576101f4610123565b816040528281528a602084870101111561020d57600080fd5b61021e836020830160208801610139565b80985050505050506102326020860161015d565b92506102406040860161015d565b915061024e6060860161015d565b905092959194509250565b60008151808452610271816020860160208601610139565b601f01601f19169290920160200192915050565b6020815260006102986020830184610259565b9392505050565b6000602082840312156102b157600080fd5b5051919050565b6040815260006102cb6040830185610259565b905060018060a01b03831660208301529392505050565b610169806102f16000396000f3fe608060405234801561001057600080fd5b506004361061002b5760003560e01c806344f0531014610030575b600080fd5b61004361003e3660046100e2565b610055565b60405190815260200160405180910390f35b600154600080546040516306ab592360e01b81526004810191909152602481018490526001600160a01b0385811660448301529192839216906306ab5923906064016020604051808303816000875af11580156100b6573d6000803e3d6000fd5b505050506040513d601f19601f820116820180604052508101906100da919061011a565b949350505050565b600080604083850312156100f557600080fd5b82356001600160a01b038116811461010c57600080fd5b946020939093013593505050565b60006020828403121561012c57600080fd5b505191905056fea2646970667358221220a6307486158de0303ea5ea419b0171c9dc46a80bd22f674f3482531fd1eccc9764736f6c63430008150033",
    "linkReferences": {}
  },
  "methodIdentifiers": {
    "createSubdomain(address,bytes32)": "44f05310"
  },
  "id": 41
}