{
  "abi": [
    {
      "inputs": [
        {
          "internalType": "address",
          "name": "_recoveryAddress",
          "type": "address"
        },
        {
          "internalType": "address",
          "name": "_principalRecipient",
          "type": "address"
        },
        {
          "internalType": "uint256",
          "name": "_amountOfPrincipalStake",
          "type": "uint256"
        },
        {
          "internalType": "address",
          "name": "initialOwner",
          "type": "address"
        }
      ],
      "stateMutability": "nonpayable",
      "type": "constructor"
    },
    {
      "inputs": [],
      "name": "InvalidDistribution_TooLarge",
      "type": "error"
    },
    {
      "inputs": [],
      "name": "InvalidTokenRecovery_InvalidRecipient",
      "type": "error"
    },
    {
      "inputs": [
        {
          "internalType": "address",
          "name": "owner",
          "type": "address"
        }
      ],
      "name": "OwnableInvalidOwner",
      "type": "error"
    },
    {
      "inputs": [
        {
          "internalType": "address",
          "name": "account",
          "type": "address"
        }
      ],
      "name": "OwnableUnauthorizedAccount",
      "type": "error"
    },
    {
      "anonymous": false,
      "inputs": [
        {
          "indexed": false,
          "internalType": "uint256",
          "name": "principalPayout",
          "type": "uint256"
        },
        {
          "indexed": false,
          "internalType": "uint256",
          "name": "rewardPayout",
          "type": "uint256"
        },
        {
          "indexed": false,
          "internalType": "uint256",
          "name": "pullFlowFlag",
          "type": "uint256"
        }
      ],
      "name": "DistributeFunds",
      "type": "event"
    },
    {
      "anonymous": false,
      "inputs": [
        {
          "indexed": true,
          "internalType": "address",
          "name": "previousOwner",
          "type": "address"
        },
        {
          "indexed": true,
          "internalType": "address",
          "name": "newOwner",
          "type": "address"
        }
      ],
      "name": "OwnershipTransferred",
      "type": "event"
    },
    {
      "anonymous": false,
      "inputs": [
        {
          "indexed": false,
          "internalType": "uint256",
          "name": "amount",
          "type": "uint256"
        }
      ],
      "name": "ReceiveETH",
      "type": "event"
    },
    {
      "anonymous": false,
      "inputs": [
        {
          "indexed": false,
          "internalType": "address",
          "name": "recoveryAddressToken",
          "type": "address"
        },
        {
          "indexed": false,
          "internalType": "address",
          "name": "recipient",
          "type": "address"
        },
        {
          "indexed": false,
          "internalType": "uint256",
          "name": "amount",
          "type": "uint256"
        }
      ],
      "name": "RecoverNonOWRecipientFunds",
      "type": "event"
    },
    {
      "anonymous": false,
      "inputs": [
        {
          "indexed": false,
          "internalType": "address",
          "name": "account",
          "type": "address"
        },
        {
          "indexed": false,
          "internalType": "uint256",
          "name": "amount",
          "type": "uint256"
        }
      ],
      "name": "Withdrawal",
      "type": "event"
    },
    {
      "inputs": [],
      "name": "claimedPrincipalFunds",
      "outputs": [
        {
          "internalType": "uint128",
          "name": "",
          "type": "uint128"
        }
      ],
      "stateMutability": "view",
      "type": "function"
    },
    {
      "inputs": [],
      "name": "distributeFunds",
      "outputs": [],
      "stateMutability": "payable",
      "type": "function"
    },
    {
      "inputs": [],
      "name": "distributeFundsPull",
      "outputs": [],
      "stateMutability": "payable",
      "type": "function"
    },
    {
      "inputs": [],
      "name": "fundsPendingWithdrawal",
      "outputs": [
        {
          "internalType": "uint128",
          "name": "",
          "type": "uint128"
        }
      ],
      "stateMutability": "view",
      "type": "function"
    },
    {
      "inputs": [
        {
          "internalType": "address",
          "name": "account",
          "type": "address"
        }
      ],
      "name": "getPullBalance",
      "outputs": [
        {
          "internalType": "uint256",
          "name": "",
          "type": "uint256"
        }
      ],
      "stateMutability": "view",
      "type": "function"
    },
    {
      "inputs": [],
      "name": "owner",
      "outputs": [
        {
          "internalType": "address",
          "name": "",
          "type": "address"
        }
      ],
      "stateMutability": "view",
      "type": "function"
    },
    {
      "inputs": [
        {
          "internalType": "address",
          "name": "nonOWRToken",
          "type": "address"
        },
        {
          "internalType": "address",
          "name": "recipient",
          "type": "address"
        }
      ],
      "name": "recoverFunds",
      "outputs": [],
      "stateMutability": "payable",
      "type": "function"
    },
    {
      "inputs": [],
      "name": "renounceOwnership",
      "outputs": [],
      "stateMutability": "nonpayable",
      "type": "function"
    },
    {
      "inputs": [
        {
          "internalType": "address",
          "name": "_rewardRecipient",
          "type": "address"
        }
      ],
      "name": "setRewardRecipient",
      "outputs": [],
      "stateMutability": "nonpayable",
      "type": "function"
    },
    {
      "inputs": [
        {
          "internalType": "address",
          "name": "newOwner",
          "type": "address"
        }
      ],
      "name": "transferOwnership",
      "outputs": [],
      "stateMutability": "nonpayable",
      "type": "function"
    },
    {
      "inputs": [
        {
          "internalType": "address",
          "name": "account",
          "type": "address"
        }
      ],
      "name": "withdraw",
      "outputs": [],
      "stateMutability": "nonpayable",
      "type": "function"
    }
  ],
  "bytecode": {
    "object": "0x608060405234801561001057600080fd5b50604051610a43380380610a4383398101604081905261002f916100dd565b806001600160a01b03811661005e57604051631e4fbdf760e01b81526000600482015260240160405180910390fd5b61006781610071565b505050505061012a565b600080546001600160a01b038381166001600160a01b0319831681178455604051919092169283917f8be0079c531659141344cd1fd0a4f28419497f9722a3daafe3b4186f6b6457e09190a35050565b80516001600160a01b03811681146100d857600080fd5b919050565b600080600080608085870312156100f357600080fd5b6100fc856100c1565b935061010a602086016100c1565b92506040850151915061011f606086016100c1565b905092959194509250565b61090a806101396000396000f3fe60806040526004361061009c5760003560e01c806351cff8d91161006457806351cff8d914610147578063715018a6146101675780638677025d1461017c5780638da5cb5b146101a3578063e521136f146101cb578063f2fde38b146101eb57600080fd5b806303615ba3146100a1578063043edae8146100ea57806324ae6a27146101225780632d7fd507146101375780633a6a4d2e1461013f575b600080fd5b3480156100ad57600080fd5b506100d76100bc3660046107db565b6001600160a01b031660009081526002602052604090205490565b6040519081526020015b60405180910390f35b3480156100f657600080fd5b5060015461010a906001600160801b031681565b6040516001600160801b0390911681526020016100e1565b6101356101303660046107fd565b61020b565b005b6101356103cb565b6101356103d7565b34801561015357600080fd5b506101356101623660046107db565b6103e1565b34801561017357600080fd5b50610135610494565b34801561018857600080fd5b5060015461010a90600160801b90046001600160801b031681565b3480156101af57600080fd5b506000546040516001600160a01b0390911681526020016100e1565b3480156101d757600080fd5b506101356101e63660046107db565b6104a6565b3480156101f757600080fd5b506101356102063660046107db565b6104d0565b6003546001600160a01b031661026a576004546001600160a01b0382811691161480159061024757506005546001600160a01b03828116911614155b15610265576040516332fe787760e21b815260040160405180910390fd5b610298565b6003546001600160a01b03828116911614610298576040516332fe787760e21b815260040160405180910390fd5b6040516370a0823160e01b81523060048201526000906001600160a01b038416906370a0823190602401602060405180830381865afa1580156102df573d6000803e3d6000fd5b505050506040513d601f19601f820116820180604052508101906103039190610830565b60405163a9059cbb60e01b81526001600160a01b038481166004830152602482018390529192509084169063a9059cbb906044016020604051808303816000875af1158015610356573d6000803e3d6000fd5b505050506040513d601f19601f8201168201806040525081019061037a9190610849565b50604080516001600160a01b038086168252841660208201529081018290527f14fe52dffd0b082cffd03bb905909e989fb4f608897a13c49c2880d92e556ae59060600160405180910390a1505050565b6103d56001610513565b565b6103d56000610513565b6001600160a01b0381166000818152600260205260408082208054600180546001600160801b03808216849003166001600160801b031990911617905590839055905190929183156108fc02918491818181858888f1935050505015801561044d573d6000803e3d6000fd5b50604080516001600160a01b0384168152602081018390527f7fcf532c15f0a6db0bd6d0e038bea71d30d808c7d98cb3bf7268a95bf5081b65910160405180910390a15050565b61049c6106c4565b6103d560006106f1565b6104ae6106c4565b600580546001600160a01b0319166001600160a01b0392909216919091179055565b6104d86106c4565b6001600160a01b03811661050757604051631e4fbdf760e01b8152600060048201526024015b60405180910390fd5b610510816106f1565b50565b60015447906001600160801b03600160801b82048116911660006105378285610881565b905060008060008560065403905067de0b6b3a76400000841015801561055d5750600081115b1561057e57808411156105765791505080820381610582565b839250610582565b8391505b506001600160801b038311156105ab576040516328165e5960e11b815260040160405180910390fd5b81156105fa5781600160108282829054906101000a90046001600160801b03166105d5919061089a565b92506101000a8154816001600160801b0302191690836001600160801b031602179055505b600454610611906001600160a01b03168389610741565b600554610628906001600160a01b03168289610741565b6001870361067a57600082118061063f5750600081115b1561067a578061064f83866108c1565b61065991906108c1565b600180546001600160801b0319166001600160801b03929092169190911790555b60408051838152602081018390529081018890527f8b367b31582d5c638694615c1cfc77ffcf9febcf6e6c793358089f7769cfeee69060600160405180910390a150505050505050565b6000546001600160a01b031633146103d55760405163118cdaa760e01b81523360048201526024016104fe565b600080546001600160a01b038381166001600160a01b0319831681178455604051919092169283917f8be0079c531659141344cd1fd0a4f28419497f9722a3daafe3b4186f6b6457e09190a35050565b81156107ba5760018103610782576001600160a01b038316600090815260026020526040812080548492906107779084906108c1565b909155506107ba9050565b6040516001600160a01b0384169083156108fc029084906000818181858888f193505050501580156107b8573d6000803e3d6000fd5b505b505050565b80356001600160a01b03811681146107d657600080fd5b919050565b6000602082840312156107ed57600080fd5b6107f6826107bf565b9392505050565b6000806040838503121561081057600080fd5b610819836107bf565b9150610827602084016107bf565b90509250929050565b60006020828403121561084257600080fd5b5051919050565b60006020828403121561085b57600080fd5b815180151581146107f657600080fd5b634e487b7160e01b600052601160045260246000fd5b818103818111156108945761089461086b565b92915050565b6001600160801b038181168382160190808211156108ba576108ba61086b565b5092915050565b808201808211156108945761089461086b56fea26469706673582212206ce20841460ee5d4ae586ceed9510aa0df2f1e46be887534177d2797fcf134ba64736f6c63430008150033",
    "linkReferences": {}
  },
  "methodIdentifiers": {
    "claimedPrincipalFunds()": "8677025d",
    "distributeFunds()": "3a6a4d2e",
    "distributeFundsPull()": "2d7fd507",
    "fundsPendingWithdrawal()": "043edae8",
    "getPullBalance(address)": "03615ba3",
    "owner()": "8da5cb5b",
    "recoverFunds(address,address)": "24ae6a27",
    "renounceOwnership()": "715018a6",
    "setRewardRecipient(address)": "e521136f",
    "transferOwnership(address)": "f2fde38b",
    "withdraw(address)": "51cff8d9"
  },
  "id": 35
}